:020000040800F2
:100000000000012059040008912B0008952B0008DE
:10001000D9040008DD0400082505000800000000E0
:10002000000000000000000000000000992B000804
:100030009D2B000800000000A12B0008A52B000844
:100040009D1F00089D1F00089D1F00089D1F0008A0
:100050009D1F00089D1F0008B92B00089D1F000868
:100060009D1F00089D1F00089D1F00089D1F000880
:100070009D1F00089D1F00089D1F00089D1F000870
:100080009D1F00089D1F00089D1F00080000000024
:100090000000000000000000000000009D1F00089C
:1000A0009D1F00089D1F00089D1F00089D1F000840
:1000B0009D1F00089D1F00089D1F00089D1F000830
:1000C0009D1F00089D1F00089D1F00089D1F000820
:1000D0009D1F00089D1F00089D1F000800000000D4
:1000E000C52B00089D1F00089D1F00080000000090
:1000F0000000000000000000000000009D1F00083C
:10010000000000009D1F00089D1F00089D1F0008A3
:1001100000000000000000000000000000000000DF
:100120009D1F00089D1F00089D1F00089D1F0008BF
:100130009D1F0008000000000000000000000000FB
:100140000000000000000000000000009D1F0008EB
:100150009D1F00089D1F00089D1F00089D1F00088F
:100160009D1F00089D1F0008000000000000000007
:10017000000000000000000000000000000000007F
:10018000000000009D1F00080000000000000000AB
:100190009D1F00080000012059040008912B000851
:1001A000952B0008D9040008DD0400082505000887
:1001B000000000000000000000000000000000003F
:1001C000992B00089D2B000800000000A12B0008BF
:1001D000A52B00089D1F00089D1F00089D1F0008FB
:1001E0009D1F00089D1F00089D1F0008B92B0008D7
:1001F0009D1F00089D1F00089D1F00089D1F0008EF
:100200009D1F00089D1F00089D1F00089D1F0008DE
:100210009D1F00089D1F00089D1F00089D1F0008CE
:1002200000000000000000000000000000000000CE
:100230009D1F00089D1F00089D1F00089D1F0008AE
:100240009D1F00089D1F00089D1F00089D1F00089E
:100250009D1F00089D1F00089D1F00089D1F00088E
:100260009D1F00089D1F00089D1F00089D1F00087E
:1002700000000000C52B00089D1F00089D1F0008FE
:10028000000000000000000000000000000000006E
:100290009D1F0008000000009D1F00089D1F000812
:1002A0009D1F00080000000000000000000000008A
:1002B000000000009D1F00089D1F00089D1F0008F2
:1002C0009D1F00089D1F00080000000000000000A6
:1002D000000000000000000000000000000000001E
:1002E0009D1F00089D1F00089D1F00089D1F0008FE
:1002F0009D1F00089D1F00089D1F000800000000B2
:1003000000000000000000000000000000000000ED
:1003100000000000000000009D1F00080000000019
:10032000000000009D1F000800B583B001F032FD01
:10033000384B394A1360394A136039490CE00A686E
:100340004B6801F10C04886803E0116819600433FC
:1003500004329842F9D82146324B9942EFD32E4BC2
:100360001A68314B9A4204D12C4B1A682F4B9A428F
:1003700000D0FEE7274B2E4A13602E4A13602E4B07
:100380000AE0194651F8082B5B6802E00020106073
:1003900004329A42FAD30B46284A9342F1D3244BB3
:1003A0001B6813B9234B1B6803B1FEE701F0F8FD8E
:1003B000694601A801F0C4FA214C224B1C1BA41071
:1003C000002504E01E4B53F8253098470135AC4218
:1003D000F8DC1D4C1D4B1C1BA410002504E01A4B1F
:1003E00053F8253098470135AC42F8DC0099019864
:1003F00001F030FE0546164C164B1C1BA41004E001
:10040000013C134B53F824309847002CF8DC284665
:1004100001F032FABABADECA00000020E001002082
:1004200088050008A00500087856341232547698E2
:10043000E4010020F8060020A0050008B00500082F
:10044000B0050008B0050008B0050008B0050008B8
:10045000B0050008B005000808B5FFF765FF00BF4C
:1004600000BEFEE71EF0040F0CBFEFF30880EFF3B1
:1004700009807146414A10472DE9F04182B0044697
:100480008846134B5E6B9F6B9D6A1B6B13F0020FCC
:100490000DD00F4BDB6A002B09DA4BF6AB6101F094
:1004A000FDFC20B14FF00042094BDA620CE0094834
:1004B00001F00CFCCDF800803B4632462946204630
:1004C00001F074FC00BEFEE702B0BDE8F08100BFA1
:1004D00000ED00E0F055000800BEFEE71EF0040F3E
:1004E0000CBFEFF30880EFF309807146244A1047F0
:1004F0002DE9F04182B004468846084B5E6B9F6B45
:100500009D6A074801F0E2FBCDF800803B46324689
:100510002946204601F04AFC00BEFEE700ED00E05F
:10052000005600081EF0040F0CBFEFF30880EFF335
:1005300009807146134A10472DE9F04182B0044604
:100540008846084B5E6B9F6B9D6A074801F0BEFBB7
:10055000CDF800803B4632462946204601F026FC75
:1005600000BEFEE700ED00E00C56000800BEFEE70E
:1005700000BEFEE700BEFEE77047000079040008F9
:08058000F10400083905000830
:10058800785B000800000020E4010020785B000888
:100598000000001000000010E4010020FC0600200C
:0805A80000000010000000102B
:1005B000704700BF10B50446074B1B680748A0FBF7
:1005C0000330800900F0CEF8002221464FF0FF30C2
:1005D00000F05AF8002010BD08000020D34D621032
:1005E00008B50B4B1A6842F400721A601A6842F49C
:1005F00080621A601A6842F480721A60032000F068
:1006000025F80F20FFF7D6FFFFF7D2FF002008BD27
:10061000003C0240024A136801331360704700BF78
:1006200074060020014B1868704700BF7406002054
:1006300010B582B00190FFF7F5FF0446FFF7F2FF17
:10064000001B019B9842F9D302B010BD10B50446BF
:10065000C31E042B03D9A421094801F02DFB094A2C
:10066000D36823F4E0631B041B0C240204F4E0644D
:10067000234343F0BF6343F40033D36010BD00BF96
:100680004853000800ED00E070B504460E461546DC
:100690000F2A03D9BC211A4801F00EFB0F2E03D9F3
:1006A000BD21174801F008FB164BDA68C2F302229D
:1006B000C2F10701042928BF0421131D062B01D90B
:1006C000033A00E00022012303FA01F1013931402D
:1006D000914003FA02F2013A2A400A43002C06DA5A
:1006E00004F00F041201D2B2074B1A5570BD12016B
:1006F000D2B204F1604404F5614484F8002370BD73
:100700004853000800ED00E014ED00E010B5041EB1
:1007100003DAD021064801F0CFFA620904F01F0481
:10072000012303FA04F4034B43F8224010BD00BF39
:100730004853000800E100E010B5041E03DAE02190
:10074000064801F0B9FA630904F01F04012202FA15
:1007500004F42033024A42F8234010BD48530008F5
:1007600000E100E00138B0F1807F0AD2064B58600A
:10077000F021064A82F823100020986007221A60B0
:1007800070470120704700BF10E000E000ED00E07E
:100790002DE9F04782B080460F46A84B984217D00B
:1007A00003F58063984213D003F5806398420FD01D
:1007B00003F5806398420BD003F58063984207D01D
:1007C00003F54063984203D0C5219D4801F074FAB7
:1007D0003B881BB9C6219A4801F06EFA7B68012B51
:1007E00022D9112B20D0022B1ED0122B1CD0954ABF
:1007F000934219D002F58012934215D002F580126F
:10080000934211D0A2F5F81293420DD002F5801256
:10081000934209D002F58012934205D0032B03D0F6
:10082000C721874801F048FABB68022B03D9C821C9
:10083000834801F041FA0025F9E00124AC403E680C
:100840002640B44240F0F2807B68022B01D0122B8C
:100850003BD13B694BB3092B27D033B32BB323B325
:100860001BB3012B21D020D0022B1ED01DD01CD0B9
:10087000042B1AD019D018D0052B16D015D0062B62
:1008800013D0052B11D0072B0FD00ED0082B0CD076
:100890000A2B0AD0092B08D007D00C2B05D00F2B20
:1008A00003D0D921664801F007FAEA08083258F85F
:1008B000220005F0070399000F238B4020EA030074
:1008C0003B698B40034348F82230D8F800304FEAA8
:1008D000450A4FF0030909FA0AF96FEA090903EA20
:1008E00009027B6803F0030303FA0AF31343C8F811
:1008F00000307B685A1E012A03D9112B01D0122B1C
:100900001BD1FB68032B03D9EC214D4801F0D4F92E
:10091000D8F8083009EA0302FB6803FA0AF3134324
:10092000C8F80830D8F8043023EA04047B68C3F31D
:100930000013AB401C43C8F80440D8F80C3009EA57
:100940000309BB6803FA0AF349EA0303C8F80C3049
:100950007B6813F0805F69D0002301933A4B5A6C97
:1009600042F480425A645B6C03F480430193019B20
:10097000A9088A1C354B53F8222005F003039B007D
:100980000F20984022EA00002C4A904511D002F531
:10099000806290450FD002F5806290450DD002F53F
:1009A000806290450BD002F58062904509D1042207
:1009B00008E0002206E0012204E0022202E0032215
:1009C00000E0052202FA03F3034302311F4A42F812
:1009D00021301F4B1A68F34302EA0301786810F4D0
:1009E000803F01D046EA0201194A1160526803EAC9
:1009F0000201786810F4003F01D046EA0201144A6F
:100A00005160926803EA0201786810F4801F01D0F7
:100A100046EA02010E4A9160D2681340796811F4E7
:100A2000001F01D046EA0203094AD36001350F2DA9
:100A30007FF603AF02B0BDE8F08700BF00000240C0
:100A40007C530008000011100038024000380140BB
:100A5000003C014038B505460C4621B94FF4C87139
:100A6000044801F029F92B691C4201D0012038BD4E
:100A7000002038BD7C53000870B5064615460C466C
:100A800021B940F2B111084801F016F9012D04D93D
:100A90004FF4D971044801F00FF90DB1B46170BD84
:100AA0002404B46170BD00BF7C53000808B5044B3A
:100AB0005B69034203D0024B586101F079FA08BD2B
:100AC000003C014030B583B0044603680F2B03D9C6
:100AD000F5219C4801F0F0F8236813F0010F45D090
:100AE0006368012B05D9052B03D0FA21954801F045
:100AF000E3F8954B9B6803F00C03042B0AD0924B50
:100B00009B6803F00C03082B0CD18F4B5B6813F42C
:100B1000800F07D08C4B1B6813F4003F26D063680E
:100B200023BBCCE12279894B1A7063687BB1FFF754
:100B300079FD054605E0FFF775FD401B642800F2CE
:100B4000C081814B1B6813F4003FF4D00EE0FFF727
:100B500069FD054605E0FFF765FD401B642800F2CE
:100B6000B281794B1B6813F4003FF4D1236813F072
:100B7000020F6AD0E368012B04D94FF496717148D3
:100B800001F09AF823691F2B04D940F22D116D480A
:100B900001F092F86C4B9B6813F00C0F0AD06A4B73
:100BA0009B6803F00C03082B1BD1674B5B6813F4A5
:100BB000800F16D1644B1B6813F0020F03D0E3685B
:100BC000012B40F082816048036823F0F80123691B
:100BD000F82292FAA2F2B2FA82F293400B43036037
:100BE00033E0E368FBB10122594B1A60FFF71AFDAD
:100BF000054605E0FFF716FD401B022800F267815D
:100C0000514B1B6813F0020FF4D04F48036823F0D8
:100C1000F8012369F82292FAA2F2B2FA82F2934022
:100C20000B43036011E00022494B1A60FFF7FAFC06
:100C3000054605E0FFF7F6FC401B022800F249815B
:100C4000414B1B6813F0020FF4D1236813F0080F17
:100C50002ED06369012B04D940F26D11394801F09F
:100C60002BF8636993B101223A4B1A60FFF7DAFC63
:100C7000054605E0FFF7D6FC401B022800F22B8159
:100C8000314B5B6F13F0020FF4D011E00022314BB7
:100C90001A60FFF7C7FC054605E0FFF7C3FC401BE1
:100CA000022800F21A81284B5B6F13F0020FF4D177
:100CB000236813F0040F60D0A368012B06D9052B1D
:100CC00004D040F297111F4800F0F6FF0023019373
:100CD0001D4B1A6C42F080521A641B6C03F0805357
:100CE0000193019B1C4A136843F480731360FFF760
:100CF00099FC054605E0FFF795FC401B022800F231
:100D0000EE80154B1B6813F4807FF4D0227A134BCE
:100D10001A70A3688BB1FFF785FC054607E0FFF763
:100D200081FC401B41F28833984200F2DA80064B86
:100D30001B6F13F0020FF2D01FE0FFF773FC0546A4
:100D400016E000BFBC5300080038024002380240E1
:100D500000004742800E4742007000407038024059
:100D6000FFF760FC401B41F28833984200F2BB80E1
:100D7000634B1B6F13F0020FF2D1A369022B04D94E
:100D80004FF4E6715F4800F097FFA369002B00F075
:100D9000AC805B4A926802F00C02082A00F0A7803F
:100DA000022B79D1E3693BB1B3F5800F04D040F257
:100DB000D511544800F080FF236A3F2B04D94FF42B
:100DC000EB71504800F078FF636A323BB3F5BF7FA8
:100DD00004D940F2D7114B4800F06EFFA36A022BF2
:100DE0000AD0042B08D0062B06D0082B04D04FF4D1
:100DF000EC71444800F060FFE36A043B0B2B04D91C
:100E000040F2D9113F4800F057FF00223E4B1A60D4
:100E1000FFF708FC054604E0FFF704FC401B02282E
:100E200067D8374B1B6813F0007FF5D1E169236A5F
:100E30001943636A47F6C07292FAA2F2B2FA82F2DA
:100E400093401943A36A5B085A1E4FF4403393FA48
:100E5000A3F3B3FA83F302FA03F30B43E26A4FF00E
:100E6000706191FAA1F1B1FA81F18A401343244AE9
:100E700053600122244B1A60FFF7D4FB044604E0C0
:100E8000FFF7D0FB001B022835D81D4B1B6813F061
:100E9000007FF5D0002031E000221B4B1A60FFF7E5
:100EA000C1FB044604E0FFF7BDFB001B022824D869
:100EB000134B1B6813F0007FF5D100201EE00120CA
:100EC0001CE003201AE0032018E0012016E00320B4
:100ED00014E0032012E0032010E003200EE00320C2
:100EE0000CE003200AE0032008E0002006E00120D7
:100EF00004E0032002E0032000E0032003B030BD43
:100F000000380240BC53000860004742244B9B68F5
:100F100003F00C03042B3FD0082B01D0214870476D
:100F200010B41F4B586800F03F005B6813F4800F4B
:100F300010D01D4BB3FBF0F0194B5A6847F6C07147
:100F40000A4091FAA1F3B3FA83F322FA03F303FB05
:100F500000F310E0134BB3FBF0F0114B5A6847F667
:100F6000C07402EA040194FAA4F2B2FA82F221FAFD
:100F700002F202FB00F30A4A506800F440324FF4D8
:100F8000403090FAA0F0B0FA80F022FA00F0013080
:100F90004000B3FBF0F001E00348704710BC70471D
:100FA000003802400024F40000127A0070B50446B4
:100FB0000D460368013B0E2B04D940F237218F48C0
:100FC00000F07AFE072D04D94FF40E718B4800F023
:100FD00073FE8B4B1B6803F00F039D4208D9EBB2E5
:100FE000874A1370136803F00F039D4240F0F480AA
:100FF000236813F0020F1DD0A368A3B1802B12D079
:10100000902B10D0A02B0ED0B02B0CD0C02B0AD020
:10101000D02B08D0E02B06D0F02B04D040F24F218B
:10102000764800F049FE77498B6823F0F002A36808
:1010300013438B60236813F0010F6BD06368032B9D
:1010400004D940F256216D4800F036FE6268012A4C
:1010500005D16C4B1B6813F4003F0FD1BEE0931E0B
:10106000012B05D8674B1B6813F0007F06D1B7E052
:10107000644B1B6813F0020F00F0B48061498B6869
:1010800023F0030313438B60FFF7CCFA0646636833
:10109000012B0FD107E0FFF7C5FA801B41F288331F
:1010A000984200F2A180574B9B6803F00C03042B7D
:1010B000F1D12FE0022B0FD107E0FFF7B3FA801B2D
:1010C00041F28833984200F291804E4B9B6803F0C6
:1010D0000C03082BF1D11DE0032B16D107E0FFF71D
:1010E000A1FA801B41F28833984200F28180454B7F
:1010F0009B6803F00C030C2BF1D10BE0FFF792FA85
:10110000801B41F28833984274D83E4B9B6813F0A1
:101110000C0FF3D13A4B1B6803F00F039D4207D22B
:10112000EAB2374B1A701B6803F00F039D4263D17C
:10113000236813F0040F19D0E36883B1B3F5805F1F
:101140000DD0B3F5A05F0AD0B3F5C05F07D0B3F5FB
:10115000E05F04D04FF42D71284800F0ADFD29491F
:101160008B6823F4E052E36813438B60236813F029
:10117000080F1AD0236983B1B3F5805F0DD0B3F5A2
:10118000A05F0AD0B3F5C05F07D0B3F5E05F04D02D
:1011900040F2BB21194800F08FFD1A4A936823F4EE
:1011A0006043216943EAC1039360FFF7AFFE154B2B
:1011B0009B6803F0F002F02393FAA3F3B3FA83F3EE
:1011C00022FA03F3104AD35CD840104B18600F206A
:1011D000FFF7F0F9002070BD012070BD012070BD47
:1011E000012070BD012070BD032070BD032070BDC3
:1011F000032070BD032070BD012070BDBC530008EA
:10120000003C024000380240AC53000808000020B7
:10121000F8B505460F4616461C4636E0B4F1FF3FCA
:1012200033D02CB1FFF7FEF9069BC01A84422CD8AC
:101230002A68536823F0E00353606B68B3F5827F3C
:101240000BD1AB68B3F5004F02D0B3F5806F04D17A
:101250002A68136823F040031360AB6AB3F5005F9C
:101260000BD12A68136823F400531B041B0C136072
:101270002A68136843F400531360012385F8513042
:10128000002385F850300320F8BD2B689B6837EAAF
:10129000030301D1012300E00023B342BED10020AB
:1012A000F8BD00BF10B582B0044600920B46002284
:1012B0008021FFF7ADFF034620B1636D43F02003AB
:1012C00063650323184602B010BD00BF002800F07C
:1012D000D98010B5044603686B4A934210D0A2F53A
:1012E000784293420CD002F58062934208D002F516
:1012F0007842934204D040F20B11644800F0DCFCC9
:1013000063683BB1B3F5827F04D04FF486715F48C8
:1013100000F0D2FCA36853B1B3F5806F07D0B3F5EA
:10132000004F04D040F20D11584800F0C5FCE368AE
:10133000B3F5006F05D023B14FF48771534800F027
:10134000BBFCA369B3F5007F08D03BB1B3F5802F98
:1013500004D040F20F114D4800F0AEFCE36993B1A8
:10136000082B10D0102B0ED0182B0CD0202B0AD00D
:10137000282B08D0302B06D0382B04D04FF488719E
:10138000424800F099FC236A33B1802B04D040F22C
:1013900011113E4800F090FC636A33B1102B04D069
:1013A0004FF48971394800F087FC636A83B9236977
:1013B00033B1022B04D040F21511344800F07CFC0C
:1013C0006369012B04D94FF48B71304800F074FC31
:1013D000A36A3BB1B3F5005F04D040F219112B486A
:1013E00000F06AFCA36AB3F5005F0AD1E36A013B2F
:1013F0004FF6FE72934204D94FF48E71234800F0E9
:101400005BFC94F8513013F0FF0F05D1002384F8F2
:101410005030204601F002FB022384F8513022684C
:10142000136823F04003136021686268A3681A43BD
:10143000E3681A4323691A4363691A43A36903F4EF
:1014400000731343E2691343226A1343A26A1A43E7
:101450000A602168638B03F00402636A13434B60E4
:10146000A36AB3F5005F02D12368E26A1A612268B9
:10147000D36923F40063D36100206065012384F8FD
:10148000513010BD0120704700300140EC5300087E
:101490002DE9F04385B004460F46154699460C9E4B
:1014A0000023ADF80E30836823B140F23631A048F6
:1014B00000F002FC94F85030012B00F072810123FF
:1014C00084F85030FFF7AEF8804694F85130DBB224
:1014D0006268012B0AD0B2F5827F40F04981A26890
:1014E000002A40F04781042B40F04681002F00F095
:1014F0004581002D00F04481B9F1000F00F04281D8
:1015000094F85130DBB2012B02D1052384F851301D
:1015100000236365A563A4F83E90A4F83C9027637C
:10152000A4F83690A4F8349023646364A36AB3F5F6
:10153000005F0BD12268136823F400531B041B0CBB
:1015400013602268136843F40053136023681A6819
:1015500012F0400F03D11A6842F040021A60E368AB
:10156000B3F5006F5DD163681BB1E38E9BB2012BB5
:1015700008D1236837F8022BDA60E38E9BB2013B77
:101580009BB2E3864FF0010942E0B9F1000F23D08E
:10159000E38E9BB203B323689A6812F0020F1BD04C
:1015A00037F8022BDA60E38E9BB2013B9BB2E386F5
:1015B000E38E9BB25BB9A36AB3F5005F0AD12268E0
:1015C000136843F4805313604FF0000904E04FF0B8
:1015D000000901E04FF00009E38F9BB273B123686B
:1015E0009A6812F0010F09D0DB6825F8023BE38FFF
:1015F0009BB2013B9BB2E3874FF00109B6F1FF3F7D
:1016000006D0FFF70FF8C8EB0000864240F2BC801E
:10161000E38E9BB2002BB8D1E38F9BB2002BB4D1E9
:101620005EE063681BB1E38E9BB2012B08D1236897
:1016300017F8012B1A73E38E9BB2013B9BB2E38632
:101640004FF0010944E0B9F1000F26D0E38E9BB2C0
:101650001BB323689A6812F0020F1ED0791C3A78E7
:101660001A73E38E9BB2013B9BB2E386E38E9BB27F
:1016700063B9A36AB3F5005F0CD12268136843F421
:10168000805313600F464FF0000906E00F464FF0FD
:10169000000902E00F464FF00009E38F9BB273B1DF
:1016A00023689A6812F0010F09D0DB682B70E38F72
:1016B0009BB2013B9BB2E38701354FF00109B6F1C4
:1016C000FF3F05D0FEF7AEFFC8EB000086425DD9B4
:1016D000E38E9BB2002BB6D1E38F9BB2002BB2D12D
:1016E000A36AB3F5005F15D1CDF80080334601221F
:1016F00011462046FFF78CFD28B1636D43F00203CD
:101700006365032545E02368DB689BB2ADF80E30C6
:10171000BDF80E3023689A6812F0100F0AD0626D7F
:1017200042F0020262654FF6EF729A60012502E014
:10173000EC5300080025CDF8008033460122022139
:101740002046FFF765FD18BB424631462046FFF7AD
:10175000A9FD18B12023636501251AE0A368C3B968
:1017600002932368DA6802929B680293029B10E05E
:1017700002250EE002250CE002250AE0012508E022
:10178000012506E0012504E0032502E0032500E031
:101790000325012384F85130002384F85030284673
:1017A00000E0022005B0BDE8F08300BF08B50348A3
:1017B00000F0A4FA012000F05FF800BF1C540008FC
:1017C00008B50D4B1B6813B90C4A0B4B1A600A4B3A
:1017D0001A68C31C23F00303134409498B4206D93A
:1017E00002F086FB0C2303604FF0FF3008BD024976
:1017F0000B60104608BD00BFE8010020FC06002079
:1018000000FC002030B50025132420462946ABBE3D
:101810000446204630BD00BF38B5044602F068FBE0
:101820000546FFF7EFFF2860204638BDB0F1FF3FC7
:1018300003D108B5FFF7F0FF08BD704710B50446A7
:101840000B4B186818B1836B0BB902F097FB132C84
:1018500009D8084B53F83430B3F1FF3F05D00548A1
:1018600000EBC40010BD002010BD002010BD00BF63
:10187000700000207002002000B508B9044D00E09F
:10188000044D182420462946ABBE0446FEE700BF9F
:1018900026000200230002002DE9F04184B0234F0E
:1018A00001970326039600230293012401AD2046ED
:1018B0002946ABBE80461E4BC3F8008001970396B5
:1018C0000423029320462946ABBE8046194BC3F839
:1018D0000080019703960823029320462946ABBE59
:1018E0000446154B1C60B4F1FF3F03D1114B1A683D
:1018F000114B1A60002305E04FF0FF310F4A42F808
:1019000033100133132BF7DD0C4B094A12681A60B0
:1019100000225A60074909689960DA600649096837
:1019200019615A6104B0BDE8F08100BF305400086D
:1019300040020020EC0100206C0200207002002018
:101940002DE9F04782B082468946364B00934F23FB
:1019500001936D46152420462946ABBE0446002C53
:1019600046D14FF000082F4B83F84F80009D47462B
:10197000464638E0F6B902F097FB204490F9013072
:10198000002B03DB092C03D1012302E0012300E03B
:1019900000233BBBB8F1080F2CDC222C01D0272CF4
:1019A00001D101352746204B43F8285008F10108A2
:1019B000012617E02FB1A74214D100262E7037461A
:1019C00010E002F071FB204490F90130002B03DBA2
:1019D000092C03D1012302E0012300E000230BB115
:1019E00000262E70013595F90040002CC2D101E08F
:1019F0004FF00008B8F1000F06D10A4B00221A7010
:101A0000094A136008F10108074B002243F8282017
:101A1000CAF80080C9F80030FFF73EFF02B0BDE809
:101A2000F08700BFF00100204402002030B585B0EF
:101A300001900291039201AD062420462946ABBED7
:101A400004462046FFF7F2FE05B030BD70B50E46E5
:101A50001546FFF7F3FE30B902F04AFA0923036096
:101A60004FF0FF3070BD04462A4631460068FFF74C
:101A7000DDFFB0F1FF3F03D0281A636803446360C1
:101A800070BD00BFF0B583B00C461546FFF7D6FE1B
:101A900030B902F02DFA092303604FF0FF304DE01A
:101AA0000646022D06D902F023FA162303604FF0F2
:101AB000FF3043E0012D13D14368E4180FD502F045
:101AC00017FA162303607368002B2CDD002C2DDD24
:101AD00002F00EFA8B2303604FF0FF302EE000255A
:101AE000022D0FD1336802AF47F8083D0C25284678
:101AF0003946ABBE05462846FFF798FEB0F1FF3FDA
:101B000017D004443368009301946F460A25284691
:101B10003946ABBE05462846FFF788FE00280BDB9A
:101B2000746020460AE04FF0FF3007E04FF0FF30CE
:101B300004E04FF0FF3001E04FF0FF3003B0F0BDA4
:101B400008B5FFF79FFF08BD30B585B00190029141
:101B5000039201AD052420462946ABBE044620462B
:101B6000FFF764FE05B030BD70B50E461446FFF7B2
:101B700065FE30B902F0BCF9092303604FF0FF3075
:101B800070BD0546224631460068FFF7DDFF021EA4
:101B900009DBA01A6B6803446B60944205D10020F6
:101BA000FFF73AFE70BD4FF0FF3070BD30B583B027
:101BB00002AD45F8040D022420462946ABBE04467A
:101BC0002046FFF733FE03B030BD00BF38B50446F2
:101BD000FFF734FE30B902F08BF9092303604FF0B0
:101BE000FF3038BD0546013C012C09D8094B9A68E5
:101BF0001B699A4204D14FF0FF330360002038BDC7
:101C00002868FFF7D3FF18B94FF0FF322A6038BDBC
:101C100038BD00BF7002002070B50C46FFF70EFE05
:101C200030B902F065F9092303604FF0FF3070BD51
:101C30000646636843F4005363604FF48063E362D5
:101C40000C2528463146ABBE05462846FFF7EEFD7B
:101C5000B0F1FF3F02D02061002070BD4FF0FF3097
:101C600070BD00BF38B505460C463C220021204619
:101C700002F041FA21462846FFF7CEFF38BD00BFEB
:101C800038B5FFF7DBFD28B902F032F9092303600C
:101C9000002038BD0546092420462946ABBE04462F
:101CA000012C07D002F024F90446FFF7ABFD2060B9
:101CB000002038BD012038BD08B50A46014602485B
:101CC00000F004F8FFF772FD7C5400080FB400B573
:101CD00083B004AB53F8042B01938021064802F033
:101CE000B5FB002803DD0146034800F04FF803B0C0
:101CF0005DF804EB04B070471003002010B50446F3
:101D000002F071FB0146204600F040F80121024834
:101D100000F03CF810BD00BF6C550008F0B585B070
:101D200006460C46174B1B6883B9174B01930423D7
:101D300002930323039301AF012528463946ABBE26
:101D40000546B5F1FF3F13D00E4B1D600D4B1B68D0
:101D500001930296039401AE052528463146ABBE99
:101D60000546B5F1FF3F06D0A54207D0601B07E04E
:101D70004FF0FF3004E04FF0FF3001E04FF0FF3054
:101D800005B0F0BD900300203054000808B5FFF7FF
:101D9000C5FF08BD08B500F021FF024B024A9A605A
:101DA00008BD00BF00ED00E000000008F8B50446E3
:101DB0000D4617461E462648FFF788FF216825482E
:101DC000FFF784FF61682448FFF780FFA16823487C
:101DD000FFF77CFFE1682248FFF778FF216921487F
:101DE000FFF774FF61692048FFF770FFA1691F4882
:101DF000FFF76CFFE1691E48FFF768FF1D48FFF71A
:101E000065FF29461C48FFF761FF1C4CE16A1C482E
:101E1000FFF75CFF216B1B48FFF758FFE16B1A4887
:101E2000FFF754FF15F0800F03D039461748FFF72E
:101E30004DFF15F4004F03D031461548FFF746FF1C
:101E40001448FFF743FF06991348FFF73FFFF8BD1B
:101E5000D4540008E4540008F45400080455000861
:101E6000145500082455000834550008445500084E
:101E700054550008645500087055000800ED00E056
:101E80008055000890550008A0550008B05500087E
:101E9000C0550008D0550008D855000838B58369EA
:101EA0001B888B426FD1044603684568013B302B89
:101EB0006BD8DFE803F0421D63635A2C2F291919F0
:101EC0006A19191919193219206A19236A356A6AA7
:101ED0006A6A6A6A6A6A6A6A6A6A6A6A6A6A6A6A62
:101EE0006A6A6A6A6A1919004FF0FF33036045E0B5
:101EF0000023036042E0002303603FE000232B60E7
:101F00006B60AB60EB6039E00023036036E0AB68E8
:101F1000036033E00023036030E0002303602DE022
:101F2000BFF34F8F1A49CA6802F4E062194B13439A
:101F3000CB60BFF34F8F00BFFDE71749286802F061
:101F400048FA70B96B6813B90123236016E0042BBB
:101F500002D10223236011E0082B02D10323236066
:101F60000CE04FF0FF33236008E02B68023B012BAD
:101F700002D80023036001E0AB680360A369023369
:101F8000A361012038BD002038BD002038BD00BF4E
:101F900000ED00E00400FA0530540008FEE7000000
:101FA00008B5FEF71DFB00F00BF800F037FE08BD8A
:101FB00008B501F0B7FA08BD08B5FEF733FB08BD58
:101FC00030B593B0022501950124049406230593AE
:101FD000079500230893102309934FF480730A9305
:101FE00008230B9304230C930DEB0300FEF76AFD0B
:101FF0000D940E9521460DA8FEF7D8FF13B030BD05
:1020000010B50446114B1B7813F0FF0F04D000F0FD
:10201000EBFB00220D4B1A70002001F0D1FD98B9A6
:10202000002001F0CDFD0028FAD0094B1B685BB100
:10203000236864332360636864336360A368643334
:10204000A360204600F09EF910BD00BF04000020F0
:10205000A403002000B58DB04E4B18680A909B88F1
:10206000ADF82C30FEF7BCFA0021084601F06AFDFD
:10207000FFF7A6FF01F030FC01F020FA01F04AFC66
:102080000DF116010DF1190001F0DEF901F042FC2D
:10209000BDF816209DF819103F4802F093F89DF8FE
:1020A0001930302B05D901223C4B1A7002238DF8D0
:1020B0002D3006220AA908A800F07CFE08AA0621F5
:1020C000002001F065F910B1354802F0EDF800F09C
:1020D00095FF10B1334802F0E7F8304B1B78012B25
:1020E0000CD10DF11A03019307AB00930DF11E0300
:1020F00007220021012000F065FE07E00DF11A0320
:1021000007AA0DF11E01012000F096FE10B126482D
:1021100002F0CAF8BDF81C10BDF81E00234B009356
:102120000723002201F0C8F818B1214802F0BCF8DA
:10213000FEE7012003901F4B029300210191102321
:10214000009307230A4600F019FF10B91A4802F05D
:10215000ABF81A4802F0A8F800F03CF818B9184893
:1021600002F0A2F802E0174802F09EF800F03CF9F5
:1021700018B9154802F098F802E0144802F094F8F3
:102180000421012001F038F901F00AFA1048FFF7A4
:1021900037FFF9E72056000828560008940300206E
:1021A0003C56000854560008685600087C56000843
:1021B0008456000840E20100A8560008C0560008F6
:1021C000E056000800570008205700085457000840
:1021D0009803002000B58BB01B238DF81830C52361
:1021E0008DF81930D5238DF81A30A5238DF81B30C2
:1021F00002208DF81C0000238DF81D30B4238DF8CB
:102200001E309A238DF81F30E1238DF820301123E2
:102210008DF821303A238DF82230CF238DF82330EA
:1022200080238DF824306E238DF8253036238DF8E9
:1022300026308DF827004E4B00930723012206A974
:1022400000F0FCFE002840F08B801B238DF8183036
:10225000C5238DF81930D5238DF81A30A5238DF8B4
:102260001B3002218DF81C1000238DF81D30FC223C
:102270008DF81E208F228DF81F20E1228DF820205E
:1022800011228DF821204A228DF82220CF228DF8AC
:102290002320A0228DF8242078228DF825203E22AC
:1022A0008DF82620E2228DF82720314A1088314A05
:1022B000059204931022039202930193009201234A
:1022C00006AA00F0FFFE00284AD11B228DF8182034
:1022D000C5238DF81930D5238DF81A30A5238DF834
:1022E0001B3002218DF81C1000238DF81D30362084
:1022F0008DF81E00AC208DF81F00E1208DF8200025
:1023000011208DF821004B208DF82200CF208DF870
:10231000230080208DF824008DF825200A228DF8D6
:10232000262034228DF82720114A1088124A05925F
:102330000493102203920422029201931223009329
:10234000062306AA00F0BEFE50B90B4B1B88094AB3
:10235000128807490988094801F034FF002003E08A
:10236000074801F0A1FF47200BB05DF804FB00BF58
:10237000860600207C060020880600209057000872
:10238000F057000800B585B003688DF80830C3F336
:1023900007238DF8093043688DF80A30C3F307230B
:1023A0008DF80B3083688DF80C30C3F307238DF85C
:1023B0000D300A4B18880A4B198802AB009306238C
:1023C000002200F079FF20B1064801F06DFF4720A0
:1023D00000E0002005B05DF804FB00BF8606002089
:1023E000880600203C58000810B592B01B238DF8D9
:1023F0003830C5238DF83930D5238DF83A30A523F0
:102400008DF83B3002208DF83C0000238DF83D30E4
:10241000D0238DF83E3082238DF83F30E2228DF8B4
:10242000402011228DF8412077228DF84220E422AD
:102430008DF8432040228DF844201A228DF8452043
:102440008DF8463042238DF84730B44B00930A2371
:1024500001220EA900F0F2FD002840F059811B2353
:102460008DF83830C5238DF83930D5238DF83A30C2
:10247000A5238DF83B3002218DF83C1000238DF808
:102480003D30E3228DF83E20A9228DF83F20E22244
:102490008DF8402011228DF8412077228DF84220BE
:1024A000E4228DF8432020228DF8442055228DF817
:1024B00045202E228DF84620A3228DF84720974AEA
:1024C0001088974A059204931022039204220292E4
:1024D000019300910B460EAA00F0F4FD002840F095
:1024E00017810E238DF82C30FF238DF82D3042F20A
:1024F0002F73ADF82E3000248DF830408DF8314028
:102500008DF8324012AB42F6041223F8122D834AA2
:102510001088834A11880DF12A020892079410222C
:10252000069205940122049203940BAC02940724B2
:102530000194009400F032FE002840F0E9801B2353
:102540008DF83830C5238DF83930D5238DF83A30E1
:10255000A5238DF83B3002218DF83C1000238DF827
:102560003D300B228DF83E2084228DF83F20E22260
:102570008DF8402011228DF841208B228DF84220C9
:10258000E4228DF8432080228DF84420C4228DF867
:10259000452020228DF84620CD228DF847205F4A25
:1025A0001088604A0592049310220392042202923A
:1025B0000193009103230EAA00F084FD002840F04F
:1025C000A7800F238DF82C30FB238DF82D304FF48E
:1025D0001E53ADF82E3000248DF830408DF8314078
:1025E0008DF8324012AB42F6041223F8122D4B4AFA
:1025F00010884C4A11880DF12A0208920794102283
:10260000069205940122049203940BAC02940724D1
:102610000194009400F0C2FD002879D11B238DF8AD
:102620003830C5228DF83920D5238DF83A30A523CE
:102630008DF83B3002218DF83C1000238DF83D30A1
:1026400073208DF83E00A0208DF83F00E2208DF829
:10265000400011208DF841008C208DF84200E420CC
:102660008DF8430060208DF844000B208DF8450064
:102670008DF8462001228DF84720284A10882A4AE2
:102680000592049310220392042202920193009176
:102690000B460EAA00F016FD002839D106238DF84E
:1026A0002C30FF238DF82D304FF41C53ADF82E3015
:1026B00000248DF830408DF831408DF8324012AB57
:1026C00042F6041223F8122D144A1088164A118873
:1026D0000DF12A0208920794102206920594012215
:1026E000049203940BAC029407240194009400F02C
:1026F00055FD68B90B4B1B88094A128807490988A0
:10270000094800880090094801F05CFD002003E0C2
:10271000074801F0C9FD472012B010BD7E06002019
:1027200084060020820600208006002068580008E9
:10273000E858000800B585B004AB23F8020D094A3B
:102740001088094A118800930223002200F0B4FD8A
:1027500020B1064801F0A8FD472000E0002005B0A8
:102760005DF804FB7E060020840600201059000856
:1027700000B585B004AB43F8040D094A1088094A36
:10278000118800930323002200F096FD20B1064833
:1027900001F08AFD472000E0002005B05DF804FB51
:1027A0007E060020820600201059000800B585B082
:1027B00004AB23F8020D094A1088094A11880093D6
:1027C0000223002200F078FD20B1064801F06CFDE4
:1027D000472000E0002005B05DF804FB7E060020E5
:1027E000800600201059000800B58BB0114A08ABD4
:1027F0001068516803C30021084601F037F80E48FD
:1028000001F052FD0020069005900490039008AB63
:10281000029308230193009003460246014600F00C
:1028200041FB18B10146054801F0CCFC0BB05DF846
:1028300004FB00BF885700083C590008585900089D
:1028400038B5054601220A4B1A600A4B19800A481E
:1028500001F0B8FC052404E0295D084801F0B2FC51
:10286000013C002CF8DC2978054801F0ABFC38BDB0
:10287000A403002096030020845900089C590008F6
:10288000A459000810B50024054B1C60054801F050
:102890000BFD0122044B1A70044B1C7010BD00BFCD
:1028A000A4030020AC590008040000209503002078
:1028B000F0B583B0404B1B880133984203D13F48A9
:1028C000FFF760FD6DE03E4B1B880133984219D144
:1028D00001F0F2FC0646C7173B01040143EA1075FC
:1028E0006FF000420023A01B65EB070101F074F9B3
:1028F00000F5877004B23148FFF744FD2046FFF72A
:1029000019FF4EE02F4B1B88013398422AD12E4BE2
:102910001B682E49A1FB0331C908684600F034FA50
:1029200001F0CAFC0246C3179900840041EA907581
:10293000690141EAD4616001001B61EB0501801867
:102940005941CB0043EA5073C200104619466FF05C
:102950000042002301F040F900F5C330A030FFF73A
:1029600007FF1EE01A4B1B880133984219D101F072
:10297000A3FCC117041841EB010524184D416B015C
:1029800043EAD4636201A4185D416FF00042002362
:102990000019694101F020F900F5E17080B2FFF7FC
:1029A00005FF0C4B1B889BB223B10A4B188880B2E1
:1029B00000F0C8FC03B0F0BD88060020980300209A
:1029C00084060020820600201C560008CDCCCCCC0A
:1029D000800600209603002008B50378042B1CD144
:1029E00043783E2B06D0FF2B0DD0052B15D1FFF7DA
:1029F00049FF08BDC378012B0FD1B0F8051009308D
:102A0000FFF71EFF08BDB0F8032040F614439A42BA
:102A100003D1B0F80700FFF74BFF08BD0268584B21
:102A20009A4240F0AC802DE9F0438DB00024009430
:102A300003F584331A6B42F001021A631A6B02F039
:102A400001020092009A01941A6B42F002021A638A
:102A50001A6B02F002020192019A02941A6B42F080
:102A600001021A631A6B02F001020292029A0394A5
:102A70001A6B42F001021A631A6B02F00102039210
:102A8000039A04941A6B42F001021A631A6B02F063
:102A900001020492049A05941A6B42F001021A632F
:102AA0001A6B02F001020592059A06945A6C42F4E0
:102AB00080525A645B6C03F480530693069B4FF478
:102AC000807607960127089709970A940B942D4D55
:102AD00007A92846FDF75CFE224631462846FDF749
:102AE000CBFF082307934FF00208CDF82080CDF8E4
:102AF000248003260A964FF00509CDF82C9007A9EB
:102B00002148FDF745FE40230793CDF82080099426
:102B10000A96CDF82C9007A92846FDF739FE8023A8
:102B20000793CDF8208009940A96CDF82C9007A938
:102B30002846FDF72DFECDF81C80089709970A96C8
:102B40000B9407A92846FDF723FE3A46414628463E
:102B5000FDF792FF07970D4B089309940A960B9483
:102B600007A92846FDF714FE224631460620FDF748
:102B70008BFD0620FDF7CAFD0DB0BDE8F083704760
:102B8000003001400000024000040240000011102B
:102B9000704700BFFEE700BF704700BF704700BF2F
:102BA000704700BF08B5FDF735FD024A13680133D1
:102BB000136008BDA803002008B50120FDF776FFCB
:102BC00008BD00BF08B54FF40050FDF76FFF0122AC
:102BD000014B1A7008BD00BFAC0300200C4B1A68F3
:102BE00042F001021A60002199601A6822F0847292
:102BF00022F480321A60074A5A601A6822F480224E
:102C00001A60D9604FF00062034B9A60704700BFB2
:102C1000003802401030002400ED00E0224B9B6899
:102C200003F00C03042B07D0082B09D0002B2DD167
:102C30001E4A1F4B1A602CE01E4A1D4B1A6028E0EA
:102C4000194B5A685B6803F03F0312F4800F09D0F8
:102C5000184AB2FBF3F2144B5B68C3F3881303FB0F
:102C600002F208E0114AB2FBF3F30F4A5168C1F3D4
:102C7000881101FB03F20C4B5B68C3F30143013382
:102C80005B00B2FBF3F30A4A136002E0074A084B09
:102C90001A60054B9B68C3F30313074AD15C044ACF
:102CA0001368CB4013607047003802400024F400E2
:102CB0000800002000127A00BC5900080060406043
:102CC000704700BFEFF3108372B60268904201D1E3
:102CD000012000E0002083F310887047EFF3108399
:102CE00072B602680A60486001600A68516083F346
:102CF00010887047EFF3108372B6086042684A602C
:102D000041604A68116083F310887047EFF31083C5
:102D100072B642680168116002684168516083F3CD
:102D20001088704738B50D46EFF3108472B603680B
:102D30000B600068FFF7EAFF2A68002313602A6827
:102D4000536084F3108838BD38B50D46EFF3108416
:102D500072B643680B604068FFF7D8FF2A6800230B
:102D600013602A68536084F3108838BDEFF3108134
:102D700072B60368002201E001321B688342FBD176
:102D800081F310881046704710B504464160FFF784
:102D900013F9206010BD00BF10B50446FFF70CF911
:102DA0002368C01A01306368984294BF0020012054
:102DB00010BD00BF08B501F093F908BD08B501F0DA
:102DC0009AF908BD30B58BB01D468DF80C008DF812
:102DD0000D108DF80E2001AC072200212046FFF7D0
:102DE000EDFF1822002104A8FFF7E8FF3F23ADF80C
:102DF00010308A23ADF8123003AB069303230793F8
:102E0000089407230993002104A800F033FC00284C
:102E10000EDB9DF8040060B9BDF805302B80BDF8CD
:102E200007200E9B1A80BDF809200F9B1A8000E036
:102E3000FF200BB030BD00BFF0B58BB00F4616467B
:102E40001D468DF80C0001AC072200212046FFF73B
:102E5000B5FF1822002104A8FFF7B0FF3F23ADF80B
:102E600010308A23ADF8123003AB06930123079389
:102E7000089407230993002104A800F0FBFB002815
:102E80000CDB9DF8040050B9BDF805303B80BDF85F
:102E900007303380BDF809302B8000E0FF200BB0F5
:102EA000F0BD00BFF0B595B09DF86C409DF8746022
:102EB000ADF80610ADF80420A2190E32282A57D812
:102EC0001F468DF80C0003AD02220DF106010DF135
:102ED0000D00FFF76FFF022201A90DF10F00FFF7B0
:102EE00069FF8DF811709DF868308DF812308DF8FB
:102EF000134022461C9905A8FFF75CFF04F1080364
:102F000014AA52FA83F303F8446C04F10903DCB207
:102F100032461E992819FFF74DFF3444E4B20222CD
:102F20001FA92819FFF746FFA01C022220A955FA65
:102F300080F0FFF73FFF0434E4B2182200210EA80E
:102F4000FFF73CFF3F23ADF838308323ADF83A302C
:102F5000109511940DF1370312930123139300215F
:102F60000EA800F087FB002804DB9DF8370002E084
:102F7000422000E0FF2015B0F0BD00BF30B58FB09B
:102F800015461C468DF804008DF8051010222946C0
:102F90000DF10600FFF70EFF8DF816409DF8483042
:102FA0008DF817309DF84C308DF81830149BCDF803
:102FB00019309DF854308DF81D301822002108A8D2
:102FC000FFF7FCFE3F23ADF820308623ADF822301A
:102FD00001AB0A931A230B930DF103030C93012306
:102FE0000D93002108A800F045FB002802DB9DF8A6
:102FF000030000E0FF200FB030BD00BF00B589B076
:103000001822002102A8FFF7D9FE3F23ADF80830AF
:1030100040F20113ADF80A300DF1070306930123C6
:103020000793002102A800F025FB002802DB9DF891
:10303000070000E0FF2009B05DF804FB70B58CB01C
:1030400016461D468DF80000012801D1022400E03B
:10305000102422460DF10100FFF7ACFE631C0CAA00
:10306000134403F8306CA31C134403F8305C03349E
:1030700005AD032200212846FFF7A0FE18220021FB
:103080000DEB0200FFF79AFE3F23ADF818304FF426
:103090008173ADF81A30CDF820D009940A95032336
:1030A0000B93002106A800F0E5FA002807DB9DF845
:1030B000140028B9BDF81520109B1A8000E0FF20ED
:1030C0000CB070BD70B590B00C4616461D4610A9E8
:1030D00021F83A0D022202A8FFF76CFE8DF80A4093
:1030E000012C01D1022400E01024224631460DF1CA
:1030F0000B00FFF75FFEE31C10AA134403F8385CD3
:10310000231D13449DF8502003F8382C631D10AA8A
:1031100013449DF8542003F8382CA31D10AA13441F
:103120009DF8582003F8382CE31D10AA13449DF88D
:103130005C2003F8382C04F1080310AA13449DF80E
:10314000602003F8382C093409AD032200212846F9
:10315000FFF734FE182200210AA8FFF72FFE3F23B5
:10316000ADF828304FF48273ADF82A3002AB0C93DF
:103170000D940E9503230F9300210AA800F07AFA0C
:10318000002807DB9DF8240028B9BDF82520199BED
:103190001A8000E0FF2010B070BD00BF70B5AAB06B
:1031A00014461E469DF8BC50ADF80600ADF804105C
:1031B00002220DF1060103A8FFF7FCFD022201A97E
:1031C0000DF10E00FFF7F6FD8DF81040012C01D136
:1031D000022400E01024224631460DF11100FFF7D1
:1031E000E9FD631D2AAA13449DF8B82003F89C2C1E
:1031F000A31D2AAA134403F89C5C07342B1905333A
:10320000802B54DC03AE2A4630993019FFF7D2FDEB
:103210002C44E4B22AAB23449DF8C42003F89C2C30
:10322000631C2AAA52FA83F39DF8C82003F89C2C49
:10323000A31C2AAA52FA83F39DF8CC2003F89C2CF5
:10324000E31C2AAA52FA83F39DF8D02003F89C2CA1
:10325000231D2AAA52FA83F39DF8D42003F89C2C4C
:103260000534E4B223AD032200212846FFF7A6FD72
:103270001822002124A8FFF7A1FD3F23ADF89030CC
:1032800040F20513ADF89230269627942895032333
:103290002993002124A800F0EDF9002809DB9DF80E
:1032A0008C0038B9BDF88D20369B1A8002E0422090
:1032B00000E0FF202AB070BD70B5AAB0ADF80600DE
:1032C000ADF80410991D802936DC1C46154603AE66
:1032D00002220DF106013046FFF76CFD022201A922
:1032E0000DF10E00FFF766FD8DF810508DF81140BE
:1032F00022462E990DF11200FFF75CFD0634E4B270
:103300001822002124A8FFF759FD3F23ADF8903083
:103310004FF48373ADF89230269627940DF18F0306
:10332000289301232993002124A800F0A3F9002861
:1033300004DB9DF88F0002E0422000E0FF202AB06D
:1033400070BD00BF00B589B0ADF80400182200219F
:1033500002A8FFF733FD3F23ADF8083040F22713F2
:10336000ADF80A3001AB0493022305930DF103037A
:10337000069301230793002102A800F07BF900289F
:1033800002DB9DF8030000E0FF2009B05DF804FBBC
:103390008B1C802B2BDC10B5A8B013460C468DF887
:1033A00004008DF805100A4619460DF10600FFF7D6
:1033B00001FD0234E4B21822002122A8FFF7FEFC2E
:1033C0003F23ADF888300C23ADF88A3001AB24934D
:1033D00025940DF18703269301232793002122A82A
:1033E00000F048F9002804DB9DF8870002E0422045
:1033F0007047FF2028B010BD00B589B08DF80400DB
:103400008DF805101822002102A8FFF7D7FC3F23F2
:10341000ADF808300F23ADF80A3001AB0493022356
:1034200005930DF10303069301230793002102A8DE
:1034300000F020F9002802DB9DF8030000E0FF20E7
:1034400009B05DF804FB00BF30B585B005460C46F9
:1034500002AB00930DF10A030DF10E0203A90DF169
:103460000F0000F0C5F9C0B290B9BDF80C301A0ACF
:103470002A701B029AB2BDF808301B091B01DBB28F
:1034800013431BB2BDF8082002F00F021343238040
:1034900005B030BD30B583B005460C4607E001A944
:1034A0002046FFF751FC01992846FFF717FC2046FC
:1034B000FFF708FC0028F2D003B030BD10B50A4871
:1034C000FFF7FCFB0948FFF7F9FB002408E08C211B
:1034D000074B01FB04310448FFF70CFC0134E4B254
:1034E000042CF4D910BD00BF9006002098060020DF
:1034F000B0030020037A042B07D1827A90F8883039
:10350000033B9A4203D002207047012070470020FD
:10351000704700BF08B50248FFF7D4FB08BD00BFE5
:103520009806002010B582B00023019300F004FB40
:103530002AE01848FFF7C6FB08BB01A91548FFF7AA
:10354000F1FB802201990831134800F007FAC0B25C
:1035500080B1019C84F888002046FFF7CBFF20B99A
:1035600021460E48FFF7C6FB0CE021460948FFF74D
:10357000B5FB07E001990748FFF7B0FB02E000F058
:10358000DBFA05E000F0D8FA00F0DCF90028D0D131
:1035900002B010BD90060020A00600209806002072
:1035A00010B582B00023019300F03AFA0F48FFF7FC
:1035B00089FB13E00D4C01A92046FFF7B3FB00F097
:1035C00029FA01980830FFF707FA00F029FA019963
:1035D0000748FFF78FFB2046FFF774FB0028E9D070
:1035E000FFF7A0FF00F016FA02B010BD9806002009
:1035F0009006002000B583B000F012FA09E001A99E
:103600000948FFF78FFB01990848FFF773FBFFF7A5
:1036100089FF0648FFF7AAFB0128F0DD00F0FAF960
:1036200003B05DF804FB00BF980600209006002060
:1036300008B500F05BFA08BD30B583B014461D46EE
:10364000C1F3090141EA8020ADF804008DF806209D
:1036500001238DF80030032201A90DEB0300FFF7D1
:10366000A9FB2346042229466846FFF7E1FF03B081
:1036700030BD00BFF0B587B005460E4643880288CE
:10368000C3F3090343EA82239FB2554B1B68554C91
:10369000A4FB03340023039301A8FFF70FFBFFF7FC
:1036A000A9FFAB682A7B69882888FFF7C5FF002E31
:1036B00040F09180E40804B90124214604A8FFF7F2
:1036C00063FB04A8FFF768FB044600286AD1FFF7F4
:1036D00021FF0028F5D100F0A3F903A94248FFF724
:1036E00021FB039B1A7A042A42D103F10B0193F8C0
:1036F0008800C61E5A7A0F2A08D002D80E2A18D07F
:1037000036E0102A4ED03E2A22D031E0B3F80D2008
:10371000974247D16A680F2A02D0DB7A43B341E06F
:103720006A69B242A8BF32466A612869FFF742FB64
:1037300046E09A89974235D106386A698242A8BF25
:1037400002466A6103F10E012869FFF733FB37E097
:10375000D97A6A6891420BD104386A698242A8BF5B
:1037600002466A6103F10C012869FFF723FB27E099
:103770001E48FFF7A7FA50B11B48FFF7A3FA30B174
:1037800003991A48FFF7B6FA0023039305E003995B
:1037900001A8FFF7AFFA00230393FFF7C3FE00F081
:1037A00039F98EE7039911B11048FFF797FA01A98B
:1037B0000D48FFF76FFE00F02DF94FF0FF340BE0DE
:1037C00003990A48FFF78AFA01A90748FFF762FE42
:1037D00000F020F900E00024204607B0F0BD00BF53
:1037E0001C560008CDCCCCCC9806002090060020BA
:1037F0002DE9F0418AB080460F4616461D4601ACC1
:10380000092200212046FFF7D9FA1822002104A836
:10381000FFF7D4FA0423ADF810300123ADF81230CD
:1038200000210691079108940923099304A8FFF742
:1038300021FF002815DB9DF8040098B99DF805309C
:1038400088F80030BDF806303B809DF808303370B2
:10385000BDF809302B80BDF80B20109B1A8000208A
:1038600000E0FF200AB0BDE8F08100BF30B591B0A4
:1038700004460D462022002102A8FFF79FFA8DF88A
:1038800008401F2C01D8224600E01F2229460DF1D6
:103890000900FFF78FFA182200210AA8FFF78EFA15
:1038A0000823ADF828300923ADF82A3002AB0C9379
:1038B00020230D930DF107030E9301230F93002195
:1038C0000AA8FFF7D7FE002802DB9DF8070000E0FA
:1038D000FF2011B030BD00BF08B50C480C4B036091
:1038E0004FF48273436000238360C36003614361CC
:1038F0004FF400728261036243620722C2620822AF
:10390000C2618362FDF7E2FC08BD00BFA006002093
:103910000030014010B50A4C00224FF4807120465F
:10392000FDF7AAF80520FCF783FE01224FF4807111
:103930002046FDF7A1F80520FCF77AFE10BD00BF78
:103940000000024008B501210348FDF783F8012873
:1039500000D0002008BD00BF00000240F0B589B0D3
:1039600005460E461746FF238DF81F300B238DF8B2
:10397000183000228DF819208DF81A208DF81B20A0
:103980008DF81C2002212248FDF776F80F230093C2
:10399000052304AA06A92846FDF77AFD9DF81030F4
:1039A000022B1FD19DF814209DF8133053EA0223F7
:1039B0001AD0BFB2BB4200D81F4600240EE00F232E
:1039C000009301230DF11E020DF11F012846FDF7A2
:1039D0005FFD9DF81E3033550134E4B2A3B29F421F
:1039E000EDD802E0002400E0002401220221084872
:1039F000FDF742F80023039303E000BF039B01336C
:103A00000393039B012BF8DD204609B0F0BD00BFF6
:103A10000000024008B50620FCF778FE08BD00BF94
:103A200008B50620FCF788FE08BD00BF2DE9F0436D
:103A3000C7B00746894690461E469DF838510A236E
:103A40008DF8103100248DF811418DF812418DF858
:103A500013418DF81441AA238DF808318DF80941DE
:103A60008DF80A418DF80B418DF80C41FFF7D8FF16
:103A7000224602211C48FCF7FFFF0F230093052379
:103A800042AA44A93846FDF703FD9DF80831022BF0
:103A900018D19DF8092173199A4216DB3EB10F2304
:103AA0000093334602AA49463846FDF7F1FC7DB142
:103AB0000F2300932B4602AA41463846FDF7E8FC47
:103AC000002406E04FF0FF3403E06FF0010400E053
:103AD0000024012202210448FCF7CEFFFFF79AFFE1
:103AE000204647B0BDE8F08300000240F0B585B045
:103AF00007460E4615461C460C4B1B680C49A1FB9D
:103B00000331C90802A8FFF73FF9E3B20093EBB213
:103B1000324639460748FFF789FF20B102A8FFF770
:103B20003BF90028F1D005B0F0BD00BF1C560008DD
:103B3000CDCCCCCCA00600200122014B5A617047AD
:103B4000003C014030B587B0054600230093194B77
:103B50001A6B42F004021A631B6B03F00403009318
:103B6000009B0C4669B94FF4005301930023029364
:103B700002230393049301A90F4B53F82000FCF791
:103B800007FE012C14D14FF4005301930024039439
:103B90000A4B029301A9084B53F82500FCF7F8FDE6
:103BA00022460F212820FCF76FFD2820FCF7AEFDF0
:103BB00007B030BD003802400C000020000021108A
:103BC00008B54FF40051034B53F82000FCF742FFB7
:103BD00008BD00BF0C00002053B94AB9002908BF36
:103BE00000281CBF4FF0FF314FF0FF3000F07EB9CE
:103BF000ADF1080C6DE904CE00F006F8DDF804E044
:103C0000DDE9022304B070472DE9F0478C460E46EB
:103C10000446089D002B50D18A4217466CD9B2FA4F
:103C200082FEBEF1000F0BD0CEF1200420FA04F486
:103C300001FA0EF644EA060C02FA0EF700FA0EF448
:103C40004FEA1749220CBCFBF9F01FFA87F809FB71
:103C500010C642EA064600FB08F3B34209D9F6193A
:103C600000F1FF3280F02281B34240F21F8102381E
:103C70003E44F61AA2B2B6FBF9F309FB136642EA18
:103C8000064403FB08F8A04509D9E41903F1FF3203
:103C900080F00A81A04540F20781023B3C44C8EB1A
:103CA000040443EA00400021002D62D024FA0EF4FF
:103CB00000232C606B60BDE8F0878B4207D9002D94
:103CC00055D0002185E841000846BDE8F087B3FAE9
:103CD00083F1002940F09080B34202D3824200F287
:103CE000F880841A66EB03060120B446002D40D00C
:103CF00085E81010BDE8F08712B90127B7FBF2F78D
:103D0000B7FA87FEBEF1000F35D1F31B4FEA174813
:103D10001FFA87FC0121B3FBF8F0220C08FB1036D8
:103D200042EA06460CFB00F3B34207D9F61900F14C
:103D3000FF3202D2B34200F2CE801046F61AA2B28F
:103D4000B6FBF8F308FB136642EA06440CFB03FCDF
:103D5000A44507D9E41903F1FF3202D2A44500F2C9
:103D6000B5801346CCEB040443EA00409CE72946A7
:103D70002846BDE8F087CEF1200106FA0EF307FAD7
:103D80000EF720FA01F94FEA1748CE4049EA030935
:103D9000B6FBF8FA4FEA194408FB1A661FFA87FCCB
:103DA00044EA06430AFB0CF29A4200FA0EF40AD9DE
:103DB000DB190AF1FF3180F087809A4240F284805B
:103DC000AAF1020A3B449B1A1FFA89F9B3FBF8F1E6
:103DD00008FB113349EA034301FB0CF69E4207D965
:103DE000DB1901F1FF326BD29E4269D902393B44A3
:103DF0009B1B41EA0A418EE7C1F1200E22FA0EF424
:103E00008B40234320FA0EF706FA01F44FEA134CD5
:103E100026FA0EF63C43B6FBFCF9270C0CFB1966A0
:103E20001FFA83F847EA064609FB08F7B74202FA89
:103E300001F200FA01FA08D9F61809F1FF3041D26F
:103E4000B7423FD9A9F102091E44F61BA0B2B6FB46
:103E5000FCF40CFB146640EA064704FB08F8B8457E
:103E600007D9FF1804F1FF3028D2B84526D9023C03
:103E70001F4444EA0940C8EB0707A0FB02894F45ED
:103E800044464E4614D329D065B3BAEB040367EB1E
:103E9000060707FA0EFECB40CF404EEA030385E843
:103EA00088000021BDE8F0871346F8E61046E0E6FA
:103EB000B8EB020469EB03060138E5E70446D8E7EE
:103EC000114695E78146C0E78A467CE7023B3C44C1
:103ED00048E708460AE702383E442FE7C245E7D3E1
:103EE0003E46D1E72946BDE8F08700BF704700BFD6
:103EF000014B1868704700BF70000020014900F0B6
:103F0000A9B800BF5D470008002310B50446036050
:103F10004360836081814366C28103614361836141
:103F2000194608225C3000F0E6F8054B6362054B49
:103F3000A362054BE362054B2462236310BD00BFFF
:103F40004D4300086F430008A7430008CB43000817
:103F500070B568234D1E5D430E4605F1740100F0F7
:103F6000D3F8044640B1002180E842000C30A06044
:103F700005F1680200F0BFF8204670BD836910B5F6
:103F8000044633BB8364C3640365124B124A1B6847
:103F90008262984204BF0123836100F01FF86060D1
:103FA000204600F01BF8A060204600F017F8002221
:103FB000E06004216068FFF7A7FF01220921A068E3
:103FC000FFF7A2FF02221221E068FFF79DFF012305
:103FD000A36110BD2C5A0008FD3E0008F8B51C4B2B
:103FE0001E68B369074613B93046FFF7C7FF483666
:103FF000B4687368013B04D4B4F90C507DB16834E3
:10400000F8E733680BB13668F2E704213846FFF76A
:104010009FFF30600028F6D10C233B60F8BD4FF6BF
:10402000FF73E3810123A38165662560A560656058
:1040300025616561A5610822294604F15C0000F054
:104040005AF86563A563A564E5642046F8BD00BF22
:104050002C5A00082DE9F8438046894600F14804AF
:10406000002694B1A5686768013F0CD4AB89012B89
:1040700007D9B5F90E30013303D029464046C84769
:1040800006436835F0E72468EBE73046BDE8F8837F
:10409000034B1B68186A034B002808BF184670477B
:1040A000700000207400002008B5034B1868FFF76B
:1040B000EFFFD0F8EC0008BD7000002082B001B91D
:1040C00001A93AB143B113780B601278101C18BFE4
:1040D000012003E0104601E06FF0010002B07047DC
:1040E00010B5431E0A44914204D011F8014B03F865
:1040F000014FF8E710BD02440346934202D003F893
:10410000011BFAE77047000070B5CD1C25F00305D0
:1041100008350C2D38BF0C25002D064601DBA942C1
:1041200002D90C23336046E000F0BCFB234B1C6833
:104130001A462146A1B10B685B1B0ED40B2B03D989
:104140000B60CC18CD501EE08C420DBF63684B68ED
:104150006360136018BF0C4615E00C464968E9E738
:10416000174C23681BB9304600F0E0F82060294660
:10417000304600F0DBF8431C18D0C41C24F00304C4
:10418000A0420DD12560304600F08DFB04F10B00FC
:10419000231D20F00700C31A0ED05A42E25070BD12
:1041A000211A304600F0C2F80130EBD10C23336005
:1041B000304600F078FB002070BD00BF7006002084
:1041C0006C0600200FB40A4B13B51C6824B1A36918
:1041D00013B92046FFF7D2FE05AB049AA1680193FC
:1041E000204600F025FD02B0BDE8104004B0704745
:1041F0007000002070B50E46054618B183690BB9F2
:10420000FFF7BCFEAB69AC6813B92846FFF7B6FEF2
:10421000224B9C4201D16C6808E0214B9C4201D1A9
:10422000AC6803E01F4B9C4208BFEC68A3891B07E6
:1042300001D523693BB92146284600F089F910B120
:104240004FF0FF3070BD013EA36816F8011F013B1F
:10425000A36091B1002B04DAA269934206DB0A291C
:1042600004D023685A1C22601970EDE722462846C4
:1042700000F0FAF80130E7D1E2E7002B08DA224635
:104280000A21284600F0F0F80130D9D00A2070BD8C
:1042900023680A205A1C2260187070BDCC5900088F
:1042A000EC5900080C5A0008024B01461868FFF749
:1042B000A1BF00BF70000020194B10B51C68A36B94
:1042C000D3B9182000F0E6FA43F20E33A06303805E
:1042D0004AF6CD33438041F2342383804EF26D633E
:1042E000C3804DF6EC630381052343810B23838157
:1042F00001220023C0E90423A16B0A4C0B69486921
:10430000094A5C4302FB0040A3FB02230132034441
:1043100043F10003C1E9042323F0004010BD00BFB6
:10432000700000202DF451582D7F954C38B5064C67
:104330000023054608462360FDF742FA431C02D1DC
:10434000236803B12B6038BD7806002010B50C46F9
:10435000B1F90E1000F024FF0028ABBF636DA389F4
:104360001B1823F48053ACBF6365A38110BD2DE9F6
:10437000F0411F468B89DB0505460C46164605D5E0
:1043800002230022B1F90E1000F012FAA389B4F949
:104390000E1023F48053A38132463B462846BDE8E5
:1043A000F04100F0C3B810B50C46B1F90E1000F0A2
:1043B000FFF9431CA38915BF606523F4805343F4C0
:1043C0008053A38118BFA38110BDB1F90E1000F076
:1043D0002DB910F8012B11F8013B012A28BF9A4290
:1043E000F7D0D01A7047034613F8012B002AFBD1EF
:1043F000181A0138704730B5141E05469BB0184690
:1044000004DA8B232B604FF0FF301DE04FF4027372
:10441000ADF80C3014BF04F1FF332346029305932B
:104420004FF6FF7300910491ADF80E3002461E9BCB
:104430006946284600F0E0FA431CBCBF8B232B6082
:1044400014B1009B00221A701BB030BD07B5009359
:1044500013460A46014603480068FFF7CCFF03B045
:104460005DF804FB70000020F8B50F4614460546C1
:1044700018B183690BB9FFF781FD224B9C4201D132
:104480006C6808E0204B9C4201D1AC6803E01F4BF4
:104490009C4208BFEC68A369A360A3891A0709D5E9
:1044A00023693BB123682069181A63699842FEB2F8
:1044B0000FDB08E02146284600F04AF80028F1D03A
:1044C0004FF0FF361BE02146284600F047F9002850
:1044D000F6D1A368013BA36023685A1C22601F70B9
:1044E00063690130984204D0A389DB0707D50A2EFF
:1044F00005D12146284600F031F90028E0D13046A8
:10450000F8BD00BFCC590008EC5900080C5A00084F
:1045100049B1FF2A85BF8A2303600A704FF0FF303C
:1045200098BF0120704708467047000038B5074C17
:10453000054608461146002222601A46FDF714FB84
:10454000431C02D1236803B12B6038BD78060020DC
:10455000324B70B51D6806460C4625B1AB6913B9E0
:104560002846FFF70BFD2E4B9C4201D16C6808E0FA
:104570002C4B9C4201D1AC6803E02B4B9C4208BF02
:10458000EC68B4F90C309AB215071DD4D00602D4E9
:10459000092232603AE0510712D5616B41B104F152
:1045A0004403994202D0304600F07EF90023636351
:1045B000A38923F02403A38100236360236923607C
:1045C000A38943F00803A38123694BB9A38903F4AA
:1045D0002073B3F5007F03D02146304600F01EF96A
:1045E000A28912F0010305D00023A36063695B4236
:1045F000A36103E0920758BF6369A36023695BB9B5
:10460000B4F90C3003F0800080B230B143F04003C5
:10461000A3814FF0FF3070BD002070BD70000020FE
:10462000CC590008EC5900080C5A000838B5064C63
:104630000023054608462360FDF7C8FA431C02D153
:10464000236803B12B6038BD780600208A892DE9E4
:10465000F041054610070C4659D44B68002B02DC8C
:104660000B6C002B17DDE66AAEB102F4805200231A
:1046700092B22F682B600AB1606D15E0216A0123A8
:104680002846B047411C0FD12B686BB11D2B01D0C0
:10469000162B03D12F600020BDE8F081A38943F0E1
:1046A0004003A381BDE8F081A3895A0705D563685B
:1046B000C01A636B0BB1236CC01A00230246E66A72
:1046C000216A2846B047431CA38906D129681D29C1
:1046D0003AD8214ACA40D60736D500226260D904AA
:1046E0002269226004D5421C01D12B6803B96065A0
:1046F000616B2F600029CED004F14403994202D0AF
:10470000284600F0D1F800206063BDE8F0810F6911
:10471000002FC0D093070E6808BF4B690F6018BF09
:104720000023C7EB06088B6002E00744C0EB0808D3
:10473000B8F1000FAFDD43463A46216AA66A284623
:10474000B0470028F1DCA38943F04003A3814FF078
:10475000FF30BDE8F08100BF0100402038B50B6993
:1047600005460C46DBB118B183690BB9FFF706FCAF
:104770000C4B9C4201D16C6808E00B4B9C4201D170
:10478000AC6803E0094B9C4208BFEC68B4F90C30FC
:104790002BB121462846BDE83840FFF757BF00201F
:1047A00038BD00BFCC590008EC5900080C5A00086D
:1047B00038B5074C054608461146002222601A46C5
:1047C000FDF7BEF9431C02D1236803B12B6038BD4D
:1047D0007806002070B50E46B1F90E10002990B091
:1047E00014461D4606DA00232B60B3891A060ED53F
:1047F00040230EE001AA00F0E5FC0028F3DB029A5A
:1048000002F47042A2F500535A425A412A604FF412
:1048100080630020236010B070BD00008B8973B5E9
:104820009E0705460C4610D401AB6A46FFF7D2FF3F
:10483000009906462846FFF767FC68B9B4F90C30C2
:104840009A0522D443F00203A38104F147032360B5
:1048500023610123636118E00D4BAB62A3892060E3
:1048600043F08003A381009B6361019B20614BB1F6
:10487000B4F90E10284600F0B7FC18B1A38943F034
:104880000103A381A0893043A08102B070BD00BFA5
:10489000FD3E0008024B01461868FFF735BC00BF1B
:1048A000700000207047704738B50546002946D093
:1048B00051F8043C0C1F002BB8BFE418FFF7F2FFBF
:1048C0001F4A1368114613B96360146032E0A342B3
:1048D0000ED92268A018834204BF18685B68636021
:1048E00004BF121822600C6024E0A24203D81346D1
:1048F0005A68002AF9D118681918A1420BD1216809
:10490000014458188242196014D1106852685A60E4
:10491000014419600EE002D90C232B600AE02168E3
:104920006018824204BF10685268626004BF0918B0
:1049300021605C602846BDE83840FFF7B4BF38BD51
:10494000700600202DE9F0478E689E4282460C4694
:10495000914698463ED88A8912F4906F3AD02568DD
:1049600009696F1A6569022305EB450595FBF3F5A7
:104970007B1C43449D4238BF1D4653050FD5294635
:10498000FFF7C2FB064698B13A462169FFF7A8FB3C
:10499000A38923F4906343F08003A38113E02A46A4
:1049A00000F0A1FC064670B921695046FFF77CFF74
:1049B0000C23CAF80030A38943F04003A3814FF0D1
:1049C000FF30BDE8F087266165613E44ED1B26603F
:1049D000A5604646464528BF4646324649462068B9
:1049E00000F066FCA3689B1BA36023681E4426603E
:1049F0000020BDE8F08700002DE9F04F9DB0804613
:104A000003938B891C060D4616460DD50B695BB9C1
:104A10004021FFF779FB2860286118B90C23C8F8FA
:104A20000030CDE040236B610023099320238DF8F3
:104A30002930DFF89CB130238DF82A3037463C46C8
:104A400014F8013B1BB9B7EB060910D003E0252B86
:104A5000F9D02746F3E74B46324629464046FFF752
:104A600071FF013000F0A780099B4B4409933B780C
:104A7000002B00F0A08000234FF0FF320493079337
:104A8000059206938DF853301A930126052221785A
:104A90004E4800F0BDFB671C049B38B14B4A801A9E
:104AA00006FA00F0184304903C46EFE7D90644BFED
:104AB00020228DF853201A0744BF2B228DF8532053
:104AC00022782A2A03D0079A00210A200BE0039AB1
:104AD000111D12680391002A10DA524243F00200BD
:104AE000079204900BE0274601343B78303B092BBA
:104AF00003D800FB02320121F5E701B107923B78B0
:104B00002E2B1ED17B782A2B0AD1039B1A1D1B68E2
:104B10000392002BB8BF4FF0FF330237059310E02C
:104B200000230593781C19460A24074601303A7879
:104B3000303A092A03D804FB01210123F5E703B128
:104B4000059103223978224800F062FB40B14023EE
:104B5000CBEB000003FA00F0049B184304900137EC
:104B600039781C488DF8281006227E1C00F050FB76
:104B700088B1194B33B9039B073323F0070308337C
:104B8000039314E003AB00932A46144B04A9404658
:104B9000AFF3008007E003AB00932A460F4B04A954
:104BA000404600F0D7F9B0F1FF3F824603D0099BA1
:104BB0005344099342E7AB895B0601D4099801E0AD
:104BC0004FF0FF301DB0BDE8F08F00BF3B5B000829
:104BD000415B0008455B00080000000045490008F3
:104BE0009368013B002B10B4936008DA9469A342E8
:104BF00002DBCBB20A2B02D110BCFFF735BC136825
:104C0000581C10601970C8B210BC7047F8B5064641
:104C10000F461446D518AC4208D03A4614F8011B8A
:104C20003046FFF7DDFF431CF5D100E00020F8BD62
:104C30002DE9F04F9DB00C4617460393064618B178
:104C400083690BB9FFF79AF97F4B9C4201D17468D5
:104C500008E07E4B9C4201D1B46803E07C4B9C424F
:104C600008BFF468A38918070CD5236953B1002342
:104C7000099320238DF8293030238DF82A30DFF86E
:104C8000D4B144E021463046FFF762FC0028EED064
:104C90004FF0FF30D5E0039A111D12680391002AEE
:104CA00080F28C80524243F002000792049098F800
:104CB00000302E2B00F08480032298F80010654805
:104CC00000F0A6FA48B14023CBEB000003FA00F055
:104CD000049B1843049008F1010898F800105E48FE
:104CE0008DF82810062208F1010700F091FA00283B
:104CF00000F09580594B002B40F08880039B0733D0
:104D000023F0070308330393099B53440993B846E0
:104D1000454615F8013B1BB9B8EB07090FD003E076
:104D2000252BF9D0A846F3E74B463A4621463046B4
:104D3000FFF76CFF01307FD0099B4B44099398F833
:104D40000030002B78D000234FF0FF3204930793FC
:104D5000059206938DF853301A930127052229787E
:104D60003F4800F055FA05F10108049B38B13C4A70
:104D7000801A07FA00F0184304904546EEE7D9067A
:104D800044BF20228DF853201A0744BF2B228DF8F0
:104D900053202A782A2A3FF47EAF079A00210A205E
:104DA000A846013598F80030303B092B03D800FBAA
:104DB00002320121F4E700293FF479AF079276E748
:104DC00098F801302A2B0BD1039B1A1D1B68039204
:104DD000002BB8BF4FF0FF3308F1020805936BE7D3
:104DE0000023059308F1010019460A258046013089
:104DF00098F80020303A092A03D805FB0121012345
:104E0000F4E7002B3FF458AF059155E703AB00934F
:104E10002246144B04A93046AFF3008007E003ABF1
:104E2000009322460F4B04A9304600F093F8B0F1EE
:104E3000FF3F82467FF468AFA3895B063FF528AF4A
:104E400009981DB0BDE8F08FCC590008EC59000856
:104E50000C5A0008415B0008455B00080000000098
:104E60003B5B00080D4C00082DE9F04791461F46BA
:104E70000A698B68DDF820809342B8BF1346C9F8F1
:104E8000003091F8432006460C4612B10133C9F8B0
:104E900000302368990642BFD9F800300233C9F8C0
:104EA0000030256815F0060510D104F1190A07E055
:104EB0000123524639463046C04701301AD00135E9
:104EC000E368D9F800209B1A9D42F1DB94F8433047
:104ED0002268003318BF012392060FD5E1185A1C2F
:104EE000302081F84300224494F8451082F84310A2
:104EF000023303E04FF0FF30BDE8F08704F14302D6
:104F000039463046C0470130F4D02268D9F8005005
:104F1000E36802F00602042A08BF5D1B2269A36849
:104F20000CBF25EAE57500259342C4BF9B1AED1816
:104F30004FF000091A344D4509D001232246394665
:104F40003046C0470130D5D009F10109F3E7002010
:104F5000BDE8F0872DE9F04317460A7E85B06E2A3A
:104F6000984606460C460C9B01F1430E00F0AE80BD
:104F700011D8632A22D009D8002A00F0BB80582A11
:104F800040F0CA8081F84520834955E0642A1ED04C
:104F9000692A1CD0C0E0732A00F0B08009D86F2ABB
:104FA0002ED0702A40F0B8800A6842F020020A60D1
:104FB0003EE0752A24D0782A3AD0ADE01A6801F193
:104FC0004205111D1960136884F84230A8E0216879
:104FD0001A6811F0800F02D0111D196008E011F05D
:104FE000400F02F10401196002D0B2F9003000E074
:104FF0001368002B3CDA2D225B4284F8432037E013
:1050000021681A6811F0800F02D0111D196007E0A5
:1050100011F0400F02F10401196001D0138800E083
:105020001368227E5C496F2A14BF0A2208221BE003
:1050300078225A4984F845202268186812F0800FB7
:1050400000F104051D6003D1550601D5038800E079
:105050000368D00744BF42F0200222601BB92268D7
:1050600022F0200222601022002084F8430001E098
:1050700049490A226568A560002D08DB206820F0F8
:10508000040020602BB9002D7DD175460CE0002B6B
:1050900079D07546B3FBF2F002FB1033CB5C05F818
:1050A000013D03460028F5D1082A0BD12368DA0711
:1050B00008D5236962689A42DEBF302305F8013CB7
:1050C00005F1FF35C5EB0E0323612EE008681A6871
:1050D000496910F0800F03D0101D1860136808E0B4
:1050E00010F0400F02F104001860136801D019801D
:1050F00000E0196000232361754616E01A68111D4F
:105100001960156862680021284600F081F808B12E
:10511000401B6060636804E004F1420584F84220AB
:1051200001232361002384F84330CDF800803B46FF
:1051300003AA21463046FFF797FE013002D14FF017
:10514000FF3026E023692A4639463046C047013001
:10515000F5D023689B0710D5002504F1190907E055
:1051600001234A4639463046C0470130E7D0013571
:10517000E368039A9B1A9D42F2DBE068039B984226
:10518000B8BF184605E00B7884F8423004F14205B8
:105190008AE705B0BDE8F0834C5B00085D5B000862
:1051A00038B5074C054608461146002222601A46CB
:1051B000FCF74CFC431C02D1236803B12B6038BDC3
:1051C0007806002038B5074C0023054608461146EE
:1051D0002360FCF747FD431C02D1236803B12B6019
:1051E00038BD00BF7806002038B5064C00230546C0
:1051F00008462360FCF744FD431C02D1236803B139
:105200002B6038BD78060020000000000000000080
:1052100001F0FF01102A2BDB10F0070F08D010F867
:10522000013B013A8B422DD010F0070F42B3F6D16B
:10523000F0B441EA012141EA014122F007047FF084
:1052400000070023F0E80256083C85EA010586EADB
:10525000010685FA47F5A3FA87F586FA47F6A5FA17
:1052600087F68EB9EED1F0BC01F0FF0102F0070223
:1052700032B110F8013B013A83EA010313B1F8D1CE
:105280000020704701387047002D06BF35460338AF
:10529000073815F0010F07D1013015F4807F02BFE8
:1052A000013015F4C03F0130F0BC0138704700BF39
:1052B000884210B501EB020301D8421E0BE0984270
:1052C000FBD28118D21AD34204D013F8014D01F851
:1052D000014DF8E710BD994204D011F8014B02F8D6
:1052E000014FF8E710BDF8B5074615460E4621B93F
:1052F0001146BDE8F840FEF707BF1AB9FFF7D4FA28
:105300002846F8BD00F015F885420ED929463846E2
:10531000FEF7FAFE044650B131462A46FEF7E0FE9B
:1053200031463846FFF7C0FA01E03046F8BD204666
:10533000F8BD51F8040C0028BEBF091851F8043C10
:10534000C0180438704700002E2E2F7379737465CF
:105350006D2F7372632F73746D333266342D6861F1
:105360006C2F73746D3332663478785F68616C5F6C
:10537000636F727465782E63000000002E2E2F7309
:10538000797374656D2F7372632F73746D33326626
:10539000342D68616C2F73746D3332663478785FA6
:1053A00068616C5F6770696F2E6300000000000029
:1053B0000102030401020304060708092E2E2F73BD
:1053C000797374656D2F7372632F73746D333266E6
:1053D000342D68616C2F73746D3332663478785F66
:1053E00068616C5F7263632E630000002E2E2F7362
:1053F000797374656D2F7372632F73746D333266B6
:10540000342D68616C2F73746D3332663478785F35
:1054100068616C5F7370692E6300000061626F7277
:105420007428292C2065786974696E672E2E2E00E9
:105430003A7474002F746D70000000002C206675A3
:105440006E6374696F6E3A200000000061737365CB
:105450007274696F6E2022257322206661696C6503
:10546000643A2066696C6520222573222C206C69C1
:105470006E65202564257325730A000061737365CA
:1054800072745F706172616D2829206661696C6554
:10549000643A2066696C6520222573222C206C6991
:1054A0006E652025640A00006D61696E286172676F
:1054B000633D25642C20617267763D5B000000002F
:1054C0002C20000022257322000000005D293B0AE9
:1054D00000000000537461636B206672616D653A71
:1054E0000A000000205230203D2020253038580A84
:1054F00000000000205231203D2020253038580A7D
:1055000000000000205232203D2020253038580A6B
:1055100000000000205233203D2020253038580A5A
:105520000000000020523132203D20253038580A3A
:1055300000000000204C52203D2020253038580A21
:1055400000000000205043203D2020253038580A1C
:105550000000000020505352203D20253038580ACA
:10556000000000004653522F4641523A0A00000004
:105570002043465352203D2020253038580A000051
:105580002048465352203D2020253038580A00003C
:105590002044465352203D2020253038580A000030
:1055A0002041465352203D2020253038580A000023
:1055B000204D4D464152203D20253038580A0000EC
:1055C0002042464152203D2020253038580A000014
:1055D0004D6973630A000000204C522F4558435F09
:1055E00052455455524E3D20253038580A0000008F
:1055F0005B486172644661756C745D0A000000006E
:105600005B4275734661756C745D0A005B5573612E
:1056100067654661756C745D0A000000E803000070
:10562000123400E18003000048577665722025643B
:105630002C204657766572202564000053657474EB
:10564000696E672042445F41444452206661696C40
:1056500065642E00474154545F496E697420666149
:10566000696C65642E0000004741505F496E6974A3
:10567000206661696C65642E00000000426C7565EF
:105680004E5247006163695F676174745F7570644F
:105690006174655F636861725F76616C75652066D1
:1056A00061696C65642E0000424C4520537461634F
:1056B0006B20496E697469616C697A65642E0000BB
:1056C0005345525645523A20424C4520537461632B
:1056D0006B20496E697469616C697A6564000000C9
:1056E00041636320736572766963652061646465F4
:1056F00064207375636365737366756C6C792E00D3
:105700004572726F72207768696C652061646469A4
:105710006E672041636320736572766963652E004E
:10572000456E7669726F6E6D656E74616C2053653F
:105730006E736F722073657276696365206164644D
:105740006564207375636365737366756C6C792E1D
:10575000000000004572726F72207768696C6520E6
:10576000616464696E6720456E7669726F6E6D65FF
:105770006E74616C2053656E736F72207365727600
:105780006963652E0000000009426C75654E524742
:1057900053657276696365204143432061646465A3
:1057A000642E2048616E646C652030782530345852
:1057B0002C20467265652066616C6C2043686172BE
:1057C00061632068616E646C653A203078253034FE
:1057D000582C2041636320436861726163206861D3
:1057E0006E646C653A203078253034580A00000029
:1057F0004572726F72207768696C652061646469B4
:105800006E672041434320736572766963652E009D
:105810004572726F72207768696C6520757064617B
:1058200074696E67204646616C6C206368617261C2
:105830006374657269737469632E00004572726FD8
:1058400072207768696C65207570646174696E6731
:1058500020414343206368617261637465726973B8
:105860007469632E000000005365727669636520D9
:10587000454E565F53454E532061646465642E2047
:1058800048616E646C65203078253034582C205483
:10589000454D50204368617261632068616E646C9D
:1058A000653A203078253034582C205052455353D7
:1058B000204368617261632068616E646C653A20A0
:1058C0003078253034582C2048554D4944204368C1
:1058D000617261632068616E646C653A203078257E
:1058E0003034580A000000004572726F72207768E9
:1058F000696C6520616464696E6720454E565F532C
:10590000454E5320736572766963652E0000000072
:105910004572726F72207768696C6520757064617A
:1059200074696E672054454D5020636861726163ED
:1059300074657269737469632E00000047656E6553
:1059400072616C20446973636F76657261626C6525
:10595000204D6F64652E00004572726F722077686B
:10596000696C652073657474696E6720646973631C
:105970006F76657261626C65206D6F6465202825A5
:1059800064290A00436F6E6E656374656420746FEA
:10599000206465766963653A00000000253032585E
:1059A0002D000000253032580A000000446973635E
:1059B0006F6E6E6563746564000000000000000097
:1059C00000000000010203040607080900000000AF
:1059D00000000000000000000000000000000000C7
:1059E00000000000000000000000000000000000B7
:1059F00000000000000000000000000000000000A7
:105A00000000000000000000000000000000000096
:105A10000000000000000000000000000000000086
:105A20000000000000000000000000001000002046
:105A30004300504F534958002E00002020202020C2
:105A4000202020202828282828202020202020202E
:105A5000202020202020202020202088101010101E
:105A60001010101010101010101010040404040472
:105A7000040404040410101010101010414141419E
:105A80004141010101010101010101010101010186
:105A90000101010101011010101010104242424298
:105AA0004242020202020202020202020202020256
:105AB000020202020202101010102000000000007A
:105AC00000000000000000000000000000000000D6
