:020000040800F2
:1000000000800120A9020008B1020008B502000822
:10001000FD02000801030008490300080000000079
:100020000000000000000000000000009103000834
:10003000950300080000000099030008951C0008C3
:10004000F5170008F5170008F5170008F517000860
:10005000F5170008F5170008F5170008F517000850
:10006000F5170008F5170008F5170008F517000840
:10007000F5170008F5170008F5170008F517000830
:10008000F5170008F5170008F51700080000000034
:10009000000000000000000000000000F51700084C
:1000A000F5170008F5170008F5170008F517000800
:1000B000F5170008F5170008F5170008F5170008F0
:1000C000F5170008F5170008F5170008F5170008E0
:1000D000F5170008F5170008F517000800000000E4
:1000E00079190008F5170008F5170008000000004E
:1000F000000000000000000000000000F5170008EC
:1001000000000000F5170008F5170008F5170008B3
:1001100000000000000000000000000000000000DF
:10012000F5170008F5170008F5170008F51700087F
:10013000F5170008000000000000000000000000AB
:10014000000000000000000000000000F51700089B
:10015000F5170008F5170008F5170008F51700084F
:10016000F5170008F5170008000000000000000067
:10017000000000000000000000000000000000007F
:1001800000000000F517000800000000000000005B
:10019000F517000800B583B001F0A4FA304B314ADE
:1001A0001360314A1360314B314A03E01168196022
:1001B000043304322F498B42F8D32A4B1A682E4B52
:1001C0009A4204D1284B1A682C4B9A4200D0FEE781
:1001D000234B2B4A13602B4A13602B4B02E0002267
:1001E0001A600433294A9342F9D3254B1B6813B98B
:1001F000244B1B6803B1FEE701F080FA694601A8B1
:1002000001F04CFA224C234B1C1BA410002504E0E7
:100210001F4B53F8253098470135AC42F8DC1E4C93
:100220001E4B1C1BA410002504E01B4B53F825306B
:1002300098470135AC42F8DC0099019801F09EFC2A
:100240000546174C174B1C1BA41004E0013C144B33
:1002500053F824309847002CF8DC284601F0FAF9CE
:10026000BABADECA0000002074000020000000209E
:10027000C430000878000020785634123254769842
:10028000780000209C01002078000020A0010020C0
:10029000D4030008D4030008D4030008D4030008E2
:1002A000D4030008D403000808B5FFF773FF00BFAC
:1002B00000BEFEE71EF0040F0CBFEFF30880EFF363
:1002C00009807146364A10472DE9F04182B0044654
:1002D0008846084B5E6B9F6B9D6A074801F0E6F904
:1002E000CDF800803B4632462946204601F00AFA06
:1002F00000BEFEE700ED00E02030000800BEFEE793
:100300001EF0040F0CBFEFF30880EFF30980714675
:10031000244A10472DE9F04182B004468846084B34
:100320005E6B9F6B9D6A074801F0C0F9CDF80080B5
:100330003B4632462946204601F0E4F900BEFEE77E
:1003400000ED00E0303000081EF0040F0CBFEFF3AA
:100350000880EFF309807146134A10472DE9F041F8
:1003600082B004468846084B5E6B9F6B9D6A0748C7
:1003700001F09CF9CDF800803B46324629462046E4
:1003800001F0C0F900BEFEE700ED00E03C300008DF
:1003900000BEFEE700BEFEE700BEFEE770470000BD
:0C03A000C9020008150300085D030008F6
:1003AC00C43000080000002078000020C430000891
:1003BC00000000100000001078000020A0010020B8
:0803CC00000000100000001009
:1003E00010B50446074B1B680748A0FB0330800983
:1003F00000F0B0FA002221464FF0FF3000F06CFA16
:10040000002010BD0C000020D34D621008B50B4B2E
:100410001A6842F400721A601A6842F480621A6024
:100420001A6842F480721A60032000F043FA002038
:10043000FFF7D6FF01F0B2FB002008BD003C0240F0
:10044000024A136801331360704700BF0C0100209B
:10045000014B1868704700BF0C0100204B4B5A68D5
:1004600022F440325A60596842680A435A6002686E
:10047000536823F48073536002685368016943EA48
:10048000012353600268536823F04073536002688D
:10049000516883680B4353600268936823F40063D8
:1004A000936002689168C3680B439360826A384B1B
:1004B0009A4214D00268936823F0706393600268D4
:1004C0009168836A0B4393600268936823F04053FA
:1004D000936002689168C36A0B43936009E0026805
:1004E000936823F0706393600268936823F040532D
:1004F00093600268936823F0020393600268936834
:10050000816943EA41039360036ABBB1026853689F
:1005100043F4006353600268536823F460435360FC
:10052000436A013B4FF4604292FAA2F2B2FA82F2BD
:10053000934001684A6813434B6004E002685368C3
:1005400023F4006353600268D36A23F47003D36218
:100550000168CA6AC369013B42EA0353CB6202687D
:10056000936823F40073936002689368016B43EA15
:10057000412393600268936823F480639360026868
:100580009368416943EA81239360704700230140E7
:100590000100000F28B310B50446036C23B943646F
:1005A00080F83C3001F02AFB236C13F0100F13D1BC
:1005B000236C23F4885323F0020343F002032364E3
:1005C0002046FFF74BFF00206064236C23F00303F9
:1005D00043F00103236400E00120002384F83C3051
:1005E00010BD0120704700BF82B00023019390F836
:1005F0003C30012B61D0012380F83C3003689A68BD
:1006000012F0010F13D19A6842F001029A60304B48
:100610001B68304AA2FB03239B0C03EB43030193AB
:1006200002E0019B013B0193019B002BF9D1026881
:10063000936813F0010F42D0036C23F4E06323F0BE
:10064000010343F480730364536813F4806F05D08F
:10065000036C23F4405343F480530364036C13F49A
:10066000805F04D0436C23F00603436401E0002361
:100670004364002380F83C306FF022031360164B74
:100680005B6813F01F0F0AD103689A6812F0405F8D
:1006900017D19A6842F080429A60002016E0036801
:1006A0000E4A93420FD19A6812F0405F0DD19A68BA
:1006B00042F080429A60002008E0022006E000201C
:1006C00004E0002002E0002000E0002002B07047BB
:1006D0000C00002083DE1B4300230140002001406A
:1006E00090F83C30012B19D0012380F83C3002688F
:1006F000936823F00103936003689B6813F0010F74
:1007000007D1036C23F4885323F0010343F0010362
:100710000364002380F83C3018467047022070477D
:100720000368D86C704700BF30B482B000230193D7
:1007300090F83C30012B00F0B280012380F83C306F
:100740000B68092B17D90568EA689BB203EB4303D2
:100750001E3B072404FA03F322EA0303EB60046858
:10076000E5688A680B8803EB43031E3B02FA03F338
:100770002B43E36013E005682A699BB203EB430354
:10078000072404FA03F322EA03032B6104682569B2
:100790008B680A8802EB420293402B4323614B682B
:1007A000062B16D805686A6B03EB8303053B1F24F1
:1007B00004FA03F322EA03036B630468656B4B6876
:1007C00003EB8303053B0A8802FA03F32B436363BD
:1007D0002EE00C2B16D805682A6B03EB8303233B12
:1007E0001F2404FA03F322EA03032B630468256B36
:1007F0004B6803EB8303233B0A8802FA03F32B4382
:10080000236315E00568EA6A03EB8303413B1F2479
:1008100004FA03F322EA0303EB620468E56A4B6817
:1008200003EB8303413B0A8802FA03F32B43E362A1
:1008300002681D4B9A4207D10B68122B04D11B4A48
:10084000536843F4800353600268174B9A4221D1E6
:100850000B68103B012B1DD8144A536843F4000366
:1008600053600B68102B15D1114B1B6802F14672B7
:1008700002F52E3202F28332A2FB03239B0C03EB20
:1008800083035A00019202E0019B013B0193019B0B
:10089000002BF9D1002380F83C30184600E00220FC
:1008A00002B030BC704700BF00200140002301406F
:1008B0000C000020074AD36823F4E0631B041B0CE0
:1008C000000200F4E060184340F0BF6040F40030E4
:1008D000D060704700ED00E030B4164BDB68C3F326
:1008E0000223C3F10704042C28BF04241D1D062D78
:1008F00001D9DD1E00E00025012303FA04F4013CC8
:100900002140A940AB40013B1A400A43002806DAC7
:1009100000F00F001201D2B2074B1A5407E0120187
:10092000D2B200F1604000F5614080F8002330BC95
:10093000704700BF00ED00E014ED00E0420900F058
:100940001F00012303FA00F0014B43F82200704717
:1009500000E100E00138B0F1807F0AD2064B586018
:10096000F021064A82F823100020986007221A60BE
:1009700070470120704700BF10E000E000ED00E08C
:10098000042805D1054A136843F004031360704737
:10099000024A136823F004031360704710E000E07C
:1009A000704700BF08B5FFF7FBFF08BDF0B583B087
:1009B0000024BBE00123A3400A6803EA0205AB421E
:1009C00040F0B3804A68022A01D0122A10D1E6080A
:1009D000083650F826C004F0070297000F22BA40EC
:1009E0002CEA020E0A69BA404EEA020240F82620BA
:1009F000026867000326BE40F64302EA060E4A6814
:100A000002F00302BA404EEA020202604A6802F1B2
:100A1000FF3EBEF1010F03D9112A01D0122A10D1D5
:100A2000826806EA020ECA68BA404EEA0202826092
:100A3000426822EA03034A68C2F30012A2401A4342
:100A40004260C3681E408B68BB403343C3604B6841
:100A500013F0805F69D000230193374B5A6C42F446
:100A600080425A645B6C03F480430193019BA608A7
:100A7000B21C324B53F8222004F003039B000F27D3
:100A80009F4022EA07072E4A904211D002F5806269
:100A900090420FD002F5806290420DD002F5806244
:100AA00090420BD002F58062904209D1042208E006
:100AB000002206E0012204E0022202E0032200E01C
:100AC000072202FA03F33B4302361C4A42F826305F
:100AD0001C4B1A68EB4302EA03064F6817F4803F89
:100AE00001D045EA0206174A1660526803EA020678
:100AF0004F6817F4003F01D045EA0206114A5660DC
:100B0000926803EA02064F6817F4801F01D045EA95
:100B100002060C4A9660D26813404E6816F4001F15
:100B200001D045EA0203074AD36001340F2C7FF657
:100B300041AF03B0F0BD00BF0038024000380140B3
:100B400000000240003C01400AB181617047090485
:100B50008161704730B583B00446036813F0010F1C
:100B60003CD0AD4B9B6803F00C03042B0AD0AA4B7E
:100B70009B6803F00C03082B0CD1A74B5B6813F4A4
:100B8000800F07D0A44B1B6813F4003F26D0636886
:100B900023BB6EE12279A14B1A7063687BB1FFF72A
:100BA00057FC054605E0FFF753FC401B642800F2A4
:100BB0006281994B1B6813F4003FF4D00EE0FFF7FD
:100BC00047FC054605E0FFF743FC401B642800F2A4
:100BD0005481914B1B6813F4003FF4D1236813F048
:100BE000020F5AD08C4B9B6813F00C0F0AD08A4B23
:100BF0009B6803F00C03082B1BD1874B5B6813F435
:100C0000800F16D1844B1B6813F0020F03D0E368EA
:100C1000012B40F034818048036823F0F8012369F8
:100C2000F82292FAA2F2B2FA82F293400B430360E6
:100C300033E0E368FBB10122794B1A60FFF708FC4F
:100C4000054605E0FFF704FC401B022800F219816D
:100C5000714B1B6813F0020FF4D06F48036823F048
:100C6000F8012369F82292FAA2F2B2FA82F29340D2
:100C70000B43036011E00022694B1A60FFF7E8FBA9
:100C8000054605E0FFF7E4FB401B022800F2FB806D
:100C9000614B1B6813F0020FF4D1236813F0080FA7
:100CA00026D0636993B101225E4B1A60FFF7D0FB37
:100CB000054605E0FFF7CCFB401B022800F2E5806B
:100CC000554B5B6F13F0020FF4D011E00022554B2F
:100CD0001A60FFF7BDFB054605E0FFF7B9FB401BB7
:100CE000022800F2D4804C4B5B6F13F0020FF4D15A
:100CF000236813F0040F47D000230193464B1A6C6E
:100D000042F080521A641B6C03F080530193019BE4
:100D1000454A136843F480731360FFF799FB054657
:100D200005E0FFF795FB401B022800F2B2803E4B26
:100D30001B6813F4807FF4D0227A3C4B1A70A368AE
:100D40008BB1FFF785FB054607E0FFF781FB401BF2
:100D500041F28833984200F29E802F4B1B6F13F0B4
:100D6000020FF2D010E0FFF773FB054607E0FFF734
:100D70006FFB401B41F28833984200F28E80264B75
:100D80001B6F13F0020FF2D1A369002B00F08780D4
:100D9000214A926802F00C02082A00F08280022B9D
:100DA00054D10022224B1A60FFF752FB054604E0A3
:100DB000FFF74EFB401B022875D8174B1B6813F03A
:100DC000007FF5D1E169236A1943636A47F6C0726F
:100DD00092FAA2F2B2FA82F293401943A36A5B0834
:100DE0005A1E4FF4403393FAA3F3B3FA83F302FA93
:100DF00003F30B43E26A4FF0706191FAA1F1B1FA8B
:100E000081F18A401343044A53600122084B1A605F
:100E1000FFF71EFB044612E0003802400238024091
:100E200000004742800E4742007000407038024088
:100E300060004742FFF70CFB001B022835D81D4B12
:100E40001B6813F0007FF5D0002031E000221A4B20
:100E50001A60FFF7FDFA044604E0FFF7F9FA001BF9
:100E6000022824D8134B1B6813F0007FF5D1002013
:100E70001EE001201CE003201AE0032018E00120FE
:100E800016E0032014E0032012E0032010E003200A
:100E90000EE003200CE003200AE0032008E000201D
:100EA00006E0012004E0032002E0032000E003202C
:100EB00003B030BD0038024060004742244B9B68BD
:100EC00003F00C03042B3FD0082B01D021487047BE
:100ED00010B41F4B586800F03F005B6813F4800F9C
:100EE00010D01D4BB3FBF0F0194B5A6847F6C07198
:100EF0000A4091FAA1F3B3FA83F322FA03F303FB56
:100F000000F310E0134BB3FBF0F0114B5A6847F6B7
:100F1000C07402EA040194FAA4F2B2FA82F221FA4D
:100F200002F202FB00F30A4A506800F440324FF428
:100F3000403090FAA0F0B0FA80F022FA00F00130D0
:100F40004000B3FBF0F001E00348704710BC70476D
:100F5000003802400024F40000127A0070B5674B9C
:100F60001B6803F00F038B4208D2CBB2634A1370A5
:100F7000136803F00F03994240F0AE80036813F04A
:100F8000020F06D05E4CA36823F0F002836813437F
:100F9000A3600D460446036813F0010F60D0426859
:100FA000012A05D1564B1B6813F4003F0FD195E081
:100FB000931E012B05D8524B1B6813F0007F06D1FE
:100FC0008EE04F4B1B6813F0020F00F08B804C49F2
:100FD0008B6823F0030313438B60FFF739FA06464F
:100FE0006368012B0ED106E0FFF732FA801B41F255
:100FF0008833984278D8424B9B6803F00C03042B4B
:10100000F2D12DE0022B0ED106E0FFF721FA801B72
:1010100041F28833984269D8394B9B6803F00C033E
:10102000082BF2D11CE0032B15D106E0FFF710FAD4
:10103000801B41F2883398425AD8314B9B6803F0A9
:101040000C030C2BF2D10BE0FFF702FA801B41F2EC
:10105000883398424ED82A4B9B6813F00C0FF3D17B
:10106000264B1B6803F00F039D4207D2EAB2234BC5
:101070001A701B6803F00F039D423DD1236813F0E3
:10108000040F06D01E498B6823F4E052E368134333
:101090008B60236813F0080F07D0194A936823F474
:1010A0006043216943EAC1039360FFF707FF144BD4
:1010B0009B6803F0F002F02393FAA3F3B3FA83F3EF
:1010C00022FA03F30F4AD35CD8400F4B186000207C
:1010D000FFF786F9002070BD012070BD012070BDB2
:1010E000012070BD012070BD032070BD032070BDC4
:1010F000032070BD032070BD012070BD003C024084
:1011000000380240F42E00080C000020014B186843
:10111000704700BF0C00002008B5FFF7F7FF084B31
:101120009B6803F4E0524FF4E05393FAA3F3B3FA4D
:1011300083F322FA03F3034AD35CD84008BD00BF0F
:1011400000380240F42E000808B5FFF7DFFF084B17
:101150009B6803F460424FF4604393FAA3F3B3FA3D
:1011600083F322FA03F3034AD35CD84008BD00BFDF
:1011700000380240F42E00082DE9F84304460168C7
:101180000B6923F44052C36813430B610068C368C2
:1011900023F4164222F00C02A16823691943636903
:1011A0001943E3690B431343C36021684B6923F47C
:1011B0004072A36913434B61E369B3F5004F40F0FC
:1011C000BB80276803F1804303F510439F4203D09F
:1011D00003F580639F4257D1FFF7B6FF00EB800015
:1011E00000EB800065686D00B0FBF5F5AB4EA6FB2B
:1011F00005356D092D01FFF7A7FF00EB800000EB1F
:10120000800063685B00B0FBF3F9FFF79DFF00EB24
:10121000800000EB800063685B00B0FBF3F3A6FB8B
:1012200003235B094FF0640808FB1393DB003233A0
:10123000A6FB03235B095B0003F4F8731D44FFF76F
:1012400083FF00EB800000EB800063685B00B0FB75
:10125000F3F9FFF779FF00EB800000EB8000636893
:101260005B00B0FBF3F3A6FB03235B0908FB1398B9
:101270004FEAC80808F13208A6FB0836C6F3421642
:101280003544BD60BDE8F883FFF746FF00EB800002
:1012900000EB800065686D00B0FBF5F57F4EA6FBA6
:1012A00005356D092D01FFF737FF00EB800000EBDE
:1012B000800063685B00B0FBF3F9FFF72DFF00EBE4
:1012C000800000EB800063685B00B0FBF3F3A6FBDB
:1012D00003235B094FF0640808FB1393DB003233F0
:1012E000A6FB03235B095B0003F4F8731D44FFF7BF
:1012F00013FF00EB800000EB800063685B00B0FB35
:10130000F3F9FFF709FF00EB800000EB8000636852
:101310005B00B0FBF3F3A6FB03235B0908FB139808
:101320004FEAC80808F13208A6FB0836C6F3421691
:101330003544BD60BDE8F8832668594B9E4203D012
:1013400003F580639E4254D1FFF7FEFE00EB800060
:1013500000EB80006568AD00B0FBF5F54F4FA7FBD3
:1013600005356D092D01FFF7EFFE00EB800000EB66
:10137000800063689B00B0FBF3F8FFF7E5FE00EB2D
:10138000800000EB800063689B00B0FBF3F3A7FBD9
:1013900003235B094FF0640909FB13831B013233FC
:1013A000A7FB03235B0903F0F0031D44FFF7CCFE0A
:1013B00000EB800000EB800063689B00B0FBF3F85B
:1013C000FFF7C2FE00EB800000EB800063689B002B
:1013D000B0FBF3F3A7FB03235B0909FB13831B019A
:1013E0003233A7FB0323C3F343131D44B560BDE8A9
:1013F000F883FFF791FE00EB800000EB800065684A
:10140000AD00B0FBF5F5254FA7FB05356D092D01A6
:10141000FFF782FE00EB800000EB800063689B001A
:10142000B0FBF3F8FFF778FE00EB800000EB8000E4
:1014300063689B00B0FBF3F3A7FB03235B094FF04A
:10144000640909FB13831B013233A7FB03235B09E8
:1014500003F0F0031D44FFF75FFE00EB800000EB9C
:10146000800063689B00B0FBF3F8FFF755FE00EBCC
:10147000800000EB800063689B00B0FBF3F3A7FBE8
:1014800003235B0909FB13831B013233A7FB0323EF
:10149000C3F343131D44B560BDE8F8831F85EB51CA
:1014A000001001402DE9F04105460F4616469846CA
:1014B000069C1EE0B4F1FF3F1BD02CB1FEF7C8FF25
:1014C000C8EB0000844214D22A68D36823F4D07396
:1014D000D3602A68536923F001035361202385F800
:1014E000393085F83A30002385F838300320BDE8DC
:1014F000F0812B681B6837EA03030CBF012300232C
:10150000B342D7D00020BDE8F08100BF68B310B56A
:10151000044690F8393013F0FF0F04D1002380F80F
:10152000383000F08FFB242384F839302268D368E8
:1015300023F40053D3602046FFF71EFE2268136990
:1015400023F4904313612268536923F02A03536103
:101550002268D36843F40053D3600020E063202363
:1015600084F8393084F83A3010BD0120704700BF4C
:101570002DE9F04182B01E4690F83930DBB2202BC5
:1015800056D104460D469046002953D0002A53D028
:1015900090F83830012B51D0012380F838300023E7
:1015A000C363212380F83930FEF752FF0746A4F8C1
:1015B0002480A4F8268027E0E38C9BB2013B9BB2F9
:1015C000E384A368B3F5805F12D100963B46002206
:1015D00080212046FFF766FF90BB22682B88C3F36B
:1015E0000803536023690BB902350DE001350BE0A8
:1015F00000963B46002280212046FFF753FF08BBA0
:1016000023682A785A600135E38C9BB2002BD3D132
:1016100000963B46002240212046FFF743FF034649
:1016200090B9202284F83920002284F838200CE078
:1016300002230AE0012308E0012306E0022304E07C
:10164000032302E0032300E00323184602B0BDE8B1
:10165000F08100BFFEE700BF08B50D4B1B6813B952
:101660000C4A0B4B1A600A4B1A68C31C23F0030385
:10167000134409498B4206D900F080FF0C23036014
:101680004FF0FF3008BD02490B60104608BD00BF97
:101690007C000020A0010020007C012001230360C9
:1016A000014B0B60704700BF040000200FB400B571
:1016B00083B004AB53F8042B01938021064800F05B
:1016C000C7FF002803DD0146034800F007F803B018
:1016D0005DF804EB04B07047840000204FF0FF3049
:1016E000704700BF08B500F087F8024B024A9A60C5
:1016F00008BD00BF00ED00E00000000808B500F0E4
:101700009BF808BDF8B504460D4617461E46264808
:10171000FFF7CCFF21682548FFF7C8FF6168244820
:10172000FFF7C4FFA1682348FFF7C0FFE168224824
:10173000FFF7BCFF21692148FFF7B8FF6169204826
:10174000FFF7B4FFA1691F48FFF7B0FFE1691E482A
:10175000FFF7ACFF1D48FFF7A9FF29461C48FFF71C
:10176000A5FF1C4CE16A1C48FFF7A0FF216B1B483A
:10177000FFF79CFFE16B1A48FFF798FF15F0800F09
:1017800003D039461748FFF791FF15F4004F03D0F7
:1017900031461548FFF78AFF1448FFF787FF06997F
:1017A0001348FFF783FFF8BD042F0008142F00082B
:1017B000242F0008342F0008442F0008542F00085D
:1017C000642F0008742F0008842F0008942F00084D
:1017D000A02F000800ED00E0B02F0008C02F000887
:1017E000D02F0008E02F0008F02F0008003000087C
:1017F00008300008FEE700000C4B1A6842F00102B6
:101800001A60002199601A6822F0847222F48032F2
:101810001A60074A5A601A6822F480221A60D96056
:101820004FF00062034B9A60704700BF00380240DF
:101830001030002400ED00E0224B9B6803F00C0305
:10184000042B07D0082B09D0002B2DD11E4A1F4B8B
:101850001A602CE01E4A1D4B1A6028E0194B5A688A
:101860005B6803F03F0312F4800F09D0184AB2FB03
:10187000F3F2144B5B68C3F3881303FB02F208E036
:10188000114AB2FBF3F30F4A5168C1F3881101FB0F
:1018900003F20C4B5B68C3F3014301335B00B2FB03
:1018A000F3F30A4A136002E0074A084B1A60054B3B
:1018B0009B68C3F30313074AD15C044A1368CB4007
:1018C00013607047003802400024F4000C00002030
:1018D00040787D014C30000870B58AB00024019436
:1018E000214B1A6B42F004021A631A6B02F00402D5
:1018F0000192019A02941A6B42F080021A631A6BE9
:1019000002F080020292029A03941A6B42F00102E2
:101910001A631A6B02F001020392039A04941A6B81
:1019200042F002021A631B6B03F002030493049B50
:101930004FF4005305930D4B06930125079505A918
:101940000B48FFF733F82026059606950794089470
:10195000084D05A92846FFF729F8224631462846B2
:10196000FFF7F2F80AB070BD003802400000211005
:101970000008024000000240F0B58FB04FF4005262
:10198000244B5A61244C2046FEF72EFE2046FEF7DB
:10199000C7FE85B2284600F023FC204900F02CFD4C
:1019A0001F4900F075FC074600F0C2FD064600F036
:1019B0001BFC0146384600F061FB1A4900F068FC48
:1019C00000F004FB00F06CF907462A46164901A80E
:1019D00000F0E6FD01A800F007FE144D4FF0FF33C4
:1019E00082B201A92846FFF7C3FD3B4632461049A3
:1019F00001A800F0D5FD01A800F0F6FD4FF0FF337F
:101A000082B201A92846FFF7B3FD2046FEF768FE23
:101A10000FB0F0BD003C01401401002000F07F45F4
:101A200000404E4500401C465C3000085C01002030
:101A300070300008FEE700BF00B585B01248134BB8
:101A400003604FF48033436000238360036183614C
:101A50000362C362C3600122C26103634261FEF795
:101A600099FD08B1FFF7E6FF0423009301230193DA
:101A70000023029369460448FEF756FE08B1FFF7BB
:101A8000D9FF05B05DF804FB1401002000200140DF
:101A900008B50A480A4B03604FF4E1334360002362
:101AA0008360C36003610C2242618361C361FFF7FD
:101AB0002DFD08B1FFF7BEFF08BD00BF5C0100208F
:101AC0000044004000B595B000220192284B196CEB
:101AD00041F0805119641B6C03F080530193019B0A
:101AE000029224490B6823F4404343F400430B6003
:101AF0000B6803F440430293029B022108910123E7
:101B00000B9310230C930E910F9210934FF4A87324
:101B10001193042312930723139308A8FFF71AF8CD
:101B200008B1FFF787FF0F230393022104910023DD
:101B300005934FF480520692079303A8FFF70EFA1D
:101B400008B1FFF777FFFFF7E1FA0B4BA3FB00307B
:101B50008009FEF7FFFE0420FEF712FF0022114667
:101B60004FF0FF30FEF7B8FE15B05DF804FB00BF84
:101B70000038024000700040D34D621008B5FEF7F7
:101B800045FCFFF79FFFFFF7A7FEFFF755FFFFF7A5
:101B90007FFF2820FEF7D2FEFEE700BF08B5072032
:101BA000FEF788FE002211466FF00B00FEF794FE50
:101BB000002211466FF00A00FEF78EFE0022114649
:101BC0006FF00900FEF788FE002211466FF0040056
:101BD000FEF782FE002211466FF00300FEF77CFE46
:101BE000002211466FF00100FEF776FE002211463A
:101BF0004FF0FF30FEF770FE08BD00BF02680F4BCC
:101C00009A421AD100B587B00021009103F58C33B8
:101C10005A6C42F480725A645B6C03F480730093D4
:101C2000009B1023019303230293039101A904480D
:101C3000FEF7BCFE07B05DF804FB704700200140D2
:101C4000000002400268104B9A421CD100B587B0D8
:101C5000002300930D4A116C41F400311164126CA1
:101C600002F400320092009A0C22019202220292A7
:101C7000039304930723059301A90548FEF796FEF5
:101C800007B05DF804FB7047004400400038024094
:101C90000000024008B5FEF7D3FBFEF783FE08BD47
:101CA000F8B5C1F30A56A6F2FF34132C0D460EDC2C
:101CB000002C01F000411FDB114B43FA04F425EA2C
:101CC0000405002245EA010310461946F8BD332CED
:101CD00007DDB4F5806FF9D102460B4600F018F825
:101CE000F4E74FF0FF31A6F2134621FA06F620EA98
:101CF000060210462946F8BD00221046F8BD00BF76
:101D0000FFFF0F0081F0004102E000BF83F00043BD
:101D100030B54FEA41044FEA430594EA050F08BF86
:101D200090EA020F1FBF54EA000C55EA020C7FEA4A
:101D3000645C7FEA655C00F0E2804FEA5454D4EBC7
:101D40005555B8BF6D420CDD2C4480EA020281EA91
:101D5000030382EA000083EA010180EA020281EAC9
:101D60000303362D88BF30BD11F0004F4FEA01311B
:101D70004FF4801C4CEA113102D0404261EB41012A
:101D800013F0004F4FEA03334CEA133302D05242B0
:101D900063EB430394EA050F00F0A780A4F101046C
:101DA000D5F1200E0DDB02FA0EFC22FA05F28018A6
:101DB00041F1000103FA0EF2801843FA05F359418C
:101DC0000EE0A5F120050EF1200E012A03FA0EFC0B
:101DD00028BF4CF0020C43FA05F3C01851EBE37135
:101DE00001F0004507D54FF0000EDCF1000C7EEB52
:101DF00000006EEB0101B1F5801F1BD3B1F5001F90
:101E00000CD349085FEA30004FEA3C0C04F10104AE
:101E10004FEA445212F5800F80F09A80BCF1004FD7
:101E200008BF5FEA500C50F1000041EB045141EA59
:101E3000050130BD5FEA4C0C404141EB010111F45A
:101E4000801FA4F10104E9D191F0000F04BF014605
:101E50000020B1FA81F308BF2033A3F10B03B3F1E3
:101E600020020CDA0C3208DD02F1140CC2F10C0273
:101E700001FA0CF021FA02F10CE002F11402D8BFD1
:101E8000C2F1200C01FA02F120FA0CFCDCBF41EA9D
:101E90000C019040E41AA2BF01EB0451294330BD6C
:101EA0006FEA04041F3C1CDA0C340EDC04F1140449
:101EB000C4F1200220FA04F001FA02F340EA030020
:101EC00021FA04F345EA030130BDC4F10C04C4F166
:101ED000200220FA02F001FA04F340EA0300294646
:101EE00030BD21FA04F0294630BD94F0000F83F490
:101EF000801306BF81F480110134013D4EE77FEA73
:101F0000645C18BF7FEA655C29D094EA050F08BFBE
:101F100090EA020F05D054EA000C04BF194610469F
:101F200030BD91EA030F1EBF0021002030BD5FEAE3
:101F3000545C05D14000494128BF41F0004130BD0B
:101F400014F580043CBF01F5801130BD01F000455F
:101F500045F0FE4141F470014FF0000030BD7FEAD2
:101F6000645C1ABF194610467FEA655C1CBF0B46CD
:101F7000024650EA013406BF52EA033591EA030FE4
:101F800041F4002130BD00BF90F0000F04BF0021DC
:101F9000704730B54FF4806404F132044FF000050F
:101FA0004FF0000150E700BF90F0000F04BF002188
:101FB000704730B54FF4806404F1320410F00045EE
:101FC00048BF40424FF000013EE700BF42004FEAE9
:101FD000E2014FEA31014FEA02701FBF12F07F4366
:101FE00093F07F4F81F06051704792F0000F14BF63
:101FF00093F07F4F704730B54FF4607401F00045A7
:1020000021F0004120E700BF50EA010208BF7047FD
:1020100030B54FF000050AE050EA010208BF7047F2
:1020200030B511F0004502D5404261EB41014FF45B
:10203000806404F132045FEA915C3FF4DCAE4FF05F
:1020400003025FEADC0C18BF03325FEADC0C18BF46
:10205000033202EBDC02C2F1200300FA03FC20FA97
:1020600002F001FA03FE40EA0E0021FA02F11444E4
:10207000C1E600BF80F0004002E000BF81F00041F7
:1020800042001FBF5FEA410392EA030F7FEA226C1E
:102090007FEA236C6AD04FEA1262D2EB1363C1BFAE
:1020A000D218414048404140B8BF5B42192B88BF1D
:1020B000704710F0004F40F4000020F07F4018BF40
:1020C000404211F0004F41F4000121F07F4118BF60
:1020D000494292EA030F3FD0A2F1010241FA03FC08
:1020E00010EB0C00C3F1200301FA03F100F00043F0
:1020F00002D5494260EB4000B0F5000F13D3B0F1B8
:10210000807F06D340084FEA310102F10102FE2A26
:1021100051D2B1F1004F40EBC25008BF20F0010096
:1021200040EA03007047490040EB000010F4000F44
:10213000A2F10102EDD1B0FA80FCACF1080CB2EBD7
:102140000C0200FA0CF0AABF00EBC2505242184336
:10215000BCBFD0401843704792F0000F81F40001DB
:1021600006BF80F400000132013BB5E74FEA4103AE
:102170007FEA226C18BF7FEA236C21D092EA030F1A
:1021800004D092F0000F08BF0846704790EA010F94
:102190001CBF0020704712F07F4F04D1400028BFC1
:1021A00040F00040704712F100723CBF00F50000A3
:1021B000704700F0004343F0FE4040F400007047D9
:1021C0007FEA226216BF08467FEA23630146420285
:1021D00006BF5FEA412390EA010F40F48000704798
:1021E0004FF0000304E000BF10F0004348BF40423E
:1021F0005FEA000C08BF704743F0964301464FF07A
:1022000000001CE050EA010208BF70474FF00003D5
:102210000AE000BF50EA010208BF704711F0004316
:1022200002D5404261EB41015FEA010C02BF8446E6
:102230000146002043F0B64308BFA3F18053A3F545
:102240000003BCFA8CF2083AA3EBC25310DB01FA8C
:1022500002FC634400FA02FCC2F12002BCF1004F10
:1022600020FA02F243EB020008BF20F001007047A1
:1022700002F1200201FA02FCC2F1200250EA4C00F5
:1022800021FA02F243EB020008BF20EADC7070473B
:102290004FF0FF0C1CEAD0521EBF1CEAD15392EA49
:1022A0000C0F93EA0C0F6FD01A4480EA010C400225
:1022B00018BF5FEA41211ED04FF0006343EA50107F
:1022C00043EA5111A0FB01310CF00040B1F5000FC1
:1022D0003EBF490041EAD3715B0040EA010062F170
:1022E0007F02FD2A1DD8B3F1004F40EBC25008BF5A
:1022F00020F00100704790F0000F0CF0004C08BF78
:1023000049024CEA502040EA51207F3AC2BFD2F144
:10231000FF0340EAC250704740F400004FF0000352
:10232000013A5DDC12F1190FDCBF00F0004070478C
:10233000C2F10002410021FA02F1C2F1200200FACA
:1023400002FC5FEA310040F1000053EA4C0308BF91
:1023500020EADC70704792F0000F00F0004C02BFE2
:10236000400010F4000F013AF9D040EA0C0093F05D
:10237000000F01F0004C02BF490011F4000F013BB7
:10238000F9D041EA0C018FE70CEAD15392EA0C0F25
:1023900018BF93EA0C0F0AD030F0004C18BF31F090
:1023A000004CD8D180EA010000F00040704790F066
:1023B000000F17BF90F0004F084691F0000F91F00A
:1023C000004F14D092EA0C0F01D142020FD193EAD0
:1023D0000C0F03D14B0218BF084608D180EA010058
:1023E00000F0004040F0FE4040F40000704740F034
:1023F000FE4040F4400070474FF0FF0C1CEAD05202
:102400001EBF1CEAD15392EA0C0F93EA0C0F69D05D
:10241000A2EB030280EA010C49024FEA402037D0C8
:102420004FF0805343EA111143EA10130CF00040BF
:102430008B4238BF5B0042F17D024FF4000C8B42AF
:1024400024BF5B1A40EA0C00B3EB510F24BFA3EB8F
:10245000510340EA5C00B3EB910F24BFA3EB91035F
:1024600040EA9C00B3EBD10F24BFA3EBD10340EAB9
:10247000DC001B0118BF5FEA1C1CE0D1FD2A3FF6FF
:1024800050AF8B4240EBC25008BF20F001007047B4
:102490000CF0004C4CEA50207F32C2BFD2F1FF0357
:1024A00040EAC250704740F400004FF00003013A88
:1024B00037E792F0000F00F0004C02BF400010F42C
:1024C000000F013AF9D040EA0C0093F0000F01F040
:1024D000004C02BF490011F4000F013BF9D041EA62
:1024E0000C0195E70CEAD15392EA0C0F08D1420295
:1024F0007FF47DAF93EA0C0F7FF470AF084676E768
:1025000093EA0C0F04D14B023FF44CAF08466EE740
:1025100030F0004C18BF31F0004CCAD130F000420E
:102520007FF45CAF31F000437FF43CAF5FE700BF66
:102530004FEA4002B2F1FE4F0FD34FF09E03B3EBD0
:1025400012620DD94FEA002343F0004310F0004F10
:1025500023FA02F018BF404270474FF00000704766
:1025600012F1610F01D1420205D110F0004008BF05
:102570006FF0004070474FF000007047014B186843
:10258000704700BF7000002010B5431E0A449142FE
:1025900004D011F8014B03F8014FF8E710BD00001B
:1025A0000EB400B59CB04FF402711DABADF8141021
:1025B000029006906FF000410A48049107914FF68F
:1025C000FF7153F8042BADF816100068019302A9AF
:1025D00000F0A6F8029B00221A701CB05DF804EB14
:1025E00003B0704770000020034613F8012B002A47
:1025F000FBD1181A0138704730B5141E05469BB040
:10260000184604DA8B232B604FF0FF301DE04FF4A7
:102610000273ADF80C3014BF04F1FF33234602936C
:1026200005934FF6FF7300910491ADF80E3002460A
:102630001E9B6946284600F073F8431CBCBF8B23E1
:102640002B6014B1009B00221A701BB030BD00003B
:1026500007B5009313460A46014603480068FFF792
:10266000CBFF03B05DF804FB700000202DE9F047BC
:102670008E689E4282460C46914698463ED88A898C
:1026800012F4906F3AD0256809696F1A65690223C0
:1026900005EB450595FBF3F57B1C43449D4238BF94
:1026A0001D4653050FD5294600F084FB064698B118
:1026B0003A462169FFF768FFA38923F4906343F04A
:1026C0008003A38113E02A4600F0D2FB064670B9CE
:1026D0002169504600F020FB0C23CAF80030A38982
:1026E00043F04003A3814FF0FF30BDE8F08726613F
:1026F00065613E44ED1B2660A5604646464528BF01
:10270000464632464946206800F0EAFAA3689B1B19
:10271000A36023681E4426600020BDE8F087000007
:102720002DE9F04F9DB0804603938B891C060D4622
:1027300016460DD50B695BB9402100F03BFB2860C4
:10274000286118B90C23C8F80030CDE040236B6134
:102750000023099320238DF82930DFF89CB1302322
:102760008DF82A3037463C4614F8013B1BB9B7EBCD
:10277000060910D003E0252BF9D02746F3E74B4696
:10278000324629464046FFF771FF013000F0A7802E
:10279000099B4B4409933B78002B00F0A080002359
:1027A0004FF0FF3204930793059206938DF8533050
:1027B0001A930126052221784E4800F041FA671C41
:1027C000049B38B14B4A801A06FA00F01843049073
:1027D0003C46EFE7D90644BF20228DF853201A0764
:1027E00044BF2B228DF8532022782A2A03D0079A3F
:1027F00000210A200BE0039A111D12680391002AA0
:1028000010DA524243F00200079204900BE0274690
:1028100001343B78303B092B03D800FB0232012105
:10282000F5E701B107923B782E2B1ED17B782A2B3E
:102830000AD1039B1A1D1B680392002BB8BF4FF0EF
:10284000FF330237059310E000230593781C1946E7
:102850000A24074601303A78303A092A03D804FBA3
:1028600001210123F5E703B10591032239782248BC
:1028700000F0E6F940B14023CBEB000003FA00F092
:10288000049B18430490013739781C488DF82810B0
:1028900006227E1C00F0D4F988B1194B33B9039B92
:1028A000073323F007030833039314E003AB0093CB
:1028B0002A46144B04A94046AFF3008007E003AB5F
:1028C00000932A460F4B04A9404600F093F8B0F15C
:1028D000FF3F824603D0099B5344099342E7AB89EB
:1028E0005B0601D4099801E04FF0FF301DB0BDE850
:1028F000F08F00BF90300008963000089A30000832
:10290000000000006D2600082DE9F04791461F46A3
:102910000A698B68DDF820809342B8BF1346C9F876
:10292000003091F8432006460C4612B10133C9F835
:1029300000302368990642BFD9F800300233C9F845
:102940000030256815F0060510D104F1190A07E0DA
:102950000123524639463046C04701301AD001356E
:10296000E368D9F800209B1A9D42F1DB94F84330CC
:102970002268003318BF012392060FD5E1185A1CB4
:10298000302081F84300224494F8451082F8431027
:10299000023303E04FF0FF30BDE8F08704F143025B
:1029A00039463046C0470130F4D02268D9F800508B
:1029B000E36802F00602042A08BF5D1B2269A368CF
:1029C0000CBF25EAE57500259342C4BF9B1AED189C
:1029D0004FF000091A344D4509D0012322463946EB
:1029E0003046C0470130D5D009F10109F3E7002096
:1029F000BDE8F0872DE9F04317460A7E85B06E2AC0
:102A0000984606460C460C9B01F1430E00F0AE8042
:102A100011D8632A22D009D8002A00F0BB80582A96
:102A200040F0CA8081F84520834955E0642A1ED0D1
:102A3000692A1CD0C0E0732A00F0B08009D86F2A40
:102A40002ED0702A40F0B8800A6842F020020A6056
:102A50003EE0752A24D0782A3AD0ADE01A6801F118
:102A60004205111D1960136884F84230A8E02168FE
:102A70001A6811F0800F02D0111D196008E011F0E2
:102A8000400F02F10401196002D0B2F9003000E0F9
:102A90001368002B3CDA2D225B4284F8432037E098
:102AA00021681A6811F0800F02D0111D196007E02B
:102AB00011F0400F02F10401196001D0138800E009
:102AC0001368227E5C496F2A14BF0A2208221BE089
:102AD00078225A4984F845202268186812F0800F3D
:102AE00000F104051D6003D1550601D5038800E0FF
:102AF0000368D00744BF42F0200222601BB922685D
:102B000022F0200222601022002084F8430001E01D
:102B100049490A226568A560002D08DB206820F07D
:102B2000040020602BB9002D7DD175460CE0002BF0
:102B300079D07546B3FBF2F002FB1033CB5C05F89D
:102B4000013D03460028F5D1082A0BD12368DA0796
:102B500008D5236962689A42DEBF302305F8013C3C
:102B600005F1FF35C5EB0E0323612EE008681A68F6
:102B7000496910F0800F03D0101D1860136808E039
:102B800010F0400F02F104001860136801D01980A2
:102B900000E0196000232361754616E01A68111DD4
:102BA0001960156862680021284600F049F808B1EC
:102BB000401B6060636804E004F1420584F8422031
:102BC00001232361002384F84330CDF800803B4685
:102BD00003AA21463046FFF797FE013002D14FF09D
:102BE000FF3026E023692A4639463046C047013087
:102BF000F5D023689B0710D5002504F1190907E0DB
:102C000001234A4639463046C0470130E7D00135F6
:102C1000E368039A9B1A9D42F2DBE068039B9842AB
:102C2000B8BF184605E00B7884F8423004F142053D
:102C30008AE705B0BDE8F083A1300008B230000893
:102C400001F0FF01102A2BDB10F0070F08D010F85D
:102C5000013B013A8B422DD010F0070F42B3F6D161
:102C6000F0B441EA012141EA014122F007047FF07A
:102C700000070023F0E80256083C85EA010586EAD1
:102C8000010685FA47F5A3FA87F586FA47F6A5FA0D
:102C900087F68EB9EED1F0BC01F0FF0102F0070219
:102CA00032B110F8013B013A83EA010313B1F8D1C4
:102CB0000020704701387047002D06BF35460338A5
:102CC000073815F0010F07D1013015F4807F02BFDE
:102CD000013015F4C03F0130F0BC0138704700BF2F
:102CE000884210B501EB020301D8421E0BE0984266
:102CF000FBD28118D21AD34204D013F8014D01F847
:102D0000014DF8E710BD994204D011F8014B02F8CB
:102D1000014FF8E710BD000038B50546002946D040
:102D200051F8043C0C1F002BB8BFE41800F0D6F893
:102D30001F4A1368114613B96360146032E0A3425E
:102D40000ED92268A018834204BF18685B686360CC
:102D500004BF121822600C6024E0A24203D813467C
:102D60005A68002AF9D118681918A1420BD12168B4
:102D7000014458188242196014D1106852685A6090
:102D8000014419600EE002D90C232B600AE021688F
:102D90006018824204BF10685268626004BF09185C
:102DA00021605C602846BDE8384000F098B838BD26
:102DB0000801002070B5CD1C25F0030508350C2D49
:102DC00038BF0C25002D064601DBA94202D90C2391
:102DD000336046E000F082F8234B1C681A46214617
:102DE000A1B10B685B1B0ED40B2B03D90B60CC1865
:102DF000CD501EE08C420DBF63684B68636013606A
:102E000018BF0C4615E00C464968E9E7174C2368E3
:102E10001BB9304600F052F820602946304600F0D9
:102E20004DF8431C18D0C41C24F00304A0420DD15B
:102E30002560304600F053F804F10B00231D20F00C
:102E40000700C31A0ED05A42E25070BD211A304614
:102E500000F034F80130EBD10C233360304600F041
:102E60003EF8002070BD00BF0801002004010020D2
:102E7000F8B5074615460E4621B91146BDE8F8409B
:102E8000FFF798BF1AB9FFF747FF2846F8BD00F0D3
:102E900027F885420ED929463846FFF78BFF0446AE
:102EA00050B131462A46FFF76FFB31463846FFF7EF
:102EB00033FF01E03046F8BD2046F8BD38B5064C7A
:102EC0000023054608462360FEF7C6FB431C02D1DB
:102ED000236803B12B6038BD100100207047704794
:102EE00051F8040C0028BEBF091851F8043CC01862
:102EF00004387047000000000102030401020304CB
:102F000006070809537461636B206672616D653A48
:102F10000A000000205230203D2020253038580A79
:102F200000000000205231203D2020253038580A72
:102F300000000000205232203D2020253038580A61
:102F400000000000205233203D2020253038580A50
:102F50000000000020523132203D20253038580A30
:102F600000000000204C52203D2020253038580A17
:102F700000000000205043203D2020253038580A12
:102F80000000000020505352203D20253038580AC0
:102F9000000000004653522F4641523A0A000000FA
:102FA0002043465352203D2020253038580A000047
:102FB0002048465352203D2020253038580A000032
:102FC0002044465352203D2020253038580A000026
:102FD0002041465352203D2020253038580A000019
:102FE000204D4D464152203D20253038580A0000E2
:102FF0002042464152203D2020253038580A00000A
:103000004D6973630A000000204C522F4558435FFE
:1030100052455455524E3D20253038580A00000084
:103020005B486172644661756C745D0A0000000063
:103030005B4275734661756C745D0A005B55736124
:1030400067654661756C745D0A0000000000000051
:1030500000000000010203040607080952617720FE
:1030600056616C75653A202568750D0A00000000F0
:103070004C696768742056616C756520696E206DB7
:1030800056203D2025642E253034640D0A000000B2
:10309000232D302B2000686C4C0065666745464741
:1030A00000303132333435363738394142434445C4
:1030B0004600303132333435363738396162636433
:0330C00065660042
:1030C4007856341280000020000000000024F40030
:1030D40000000000000000000000000000000000EC
:1030E40000000000000000000000000000000000DC
:1030F40000000000000000000000000000000000CC
:1031040000000000000000000000000000000000BB
:1031140000000000000000000000000000000000AB
:10312400000000000000000000000000000000009B
:083134001000002032547698CF
:040000050800019559
:00000001FF
